Component: ARM Compiler 5.05 update 2 (build 169) Tool: armlink [4d0f33]

==============================================================================

Section Cross References

    startup_stm32f10x_hd.o(RESET) refers to startup_stm32f10x_hd.o(STACK) for __initial_sp
    startup_stm32f10x_hd.o(RESET) refers to startup_stm32f10x_hd.o(.text) for Reset_Handler
    startup_stm32f10x_hd.o(RESET) refers to stm32f10x_it.o(i.NMI_Handler) for NMI_Handler
    startup_stm32f10x_hd.o(RESET) refers to stm32f10x_it.o(i.HardFault_Handler) for HardFault_Handler
    startup_stm32f10x_hd.o(RESET) refers to stm32f10x_it.o(i.MemManage_Handler) for MemManage_Handler
    startup_stm32f10x_hd.o(RESET) refers to stm32f10x_it.o(i.BusFault_Handler) for BusFault_Handler
    startup_stm32f10x_hd.o(RESET) refers to stm32f10x_it.o(i.UsageFault_Handler) for UsageFault_Handler
    startup_stm32f10x_hd.o(RESET) refers to stm32f10x_it.o(i.SVC_Handler) for SVC_Handler
    startup_stm32f10x_hd.o(RESET) refers to stm32f10x_it.o(i.DebugMon_Handler) for DebugMon_Handler
    startup_stm32f10x_hd.o(RESET) refers to stm32f10x_it.o(i.PendSV_Handler) for PendSV_Handler
    startup_stm32f10x_hd.o(RESET) refers to systick.o(i.SysTick_Handler) for SysTick_Handler
    startup_stm32f10x_hd.o(RESET) refers to lipo.o(i.ADC1_2_IRQHandler) for ADC1_2_IRQHandler
    startup_stm32f10x_hd.o(RESET) refers to usart1.o(i.USART1_IRQHandler) for USART1_IRQHandler
    startup_stm32f10x_hd.o(.text) refers to system_stm32f10x.o(i.SystemInit) for SystemInit
    startup_stm32f10x_hd.o(.text) refers to entry.o(.ARM.Collect$$$$00000000) for __main
    system_stm32f10x.o(i.SetSysClock) refers to system_stm32f10x.o(i.SetSysClockTo72) for SetSysClockTo72
    system_stm32f10x.o(i.SystemCoreClockUpdate) refers to system_stm32f10x.o(.data) for SystemCoreClock
    system_stm32f10x.o(i.SystemInit) refers to system_stm32f10x.o(i.SetSysClock) for SetSysClock
==============================================================================

Removing Unused input sections from the image.

    Removing startup_stm32f10x_hd.o(HEAP), (512 bytes).
    Removing core_cm3.o(.emb_text), (32 bytes).
    Removing system_stm32f10x.o(i.SystemCoreClockUpdate), (164 bytes).
    Removing misc.o(i.NVIC_SetVectorTable), (20 bytes).
    Removing misc.o(i.NVIC_SystemLPConfig), (32 bytes).
    Removing misc.o(i.SysTick_CLKSourceConfig), (40 bytes).
    Removing stm32f10x_adc.o(i.ADC_AnalogWatchdogCmd), (20 bytes).
    Removing stm32f10x_adc.o(i.ADC_AnalogWatchdogSingleChannelConfig), (16 bytes).
    Removing stm32f10x_adc.o(i.ADC_AnalogWatchdogThresholdsConfig), (6 bytes).
    Removing stm32f10x_adc.o(i.ADC_AutoInjectedConvCmd), (22 bytes).
    Removing stm32f10x_adc.o(i.ADC_ClearFlag), (6 bytes).
    Removing stm32f10x_adc.o(i.ADC_ClearITPendingBit), (10 bytes).
    Removing stm32f10x_adc.o(i.ADC_DeInit), (92 bytes).
    Removing stm32f10x_adc.o(i.ADC_DiscModeChannelCountConfig), (24 bytes).
    Removing stm32f10x_adc.o(i.ADC_DiscModeCmd), (22 bytes).
    Removing stm32f10x_adc.o(i.ADC_ExternalTrigConvCmd), (22 bytes).
    Removing stm32f10x_adc.o(i.ADC_ExternalTrigInjectedConvCmd), (22 bytes).
    Removing stm32f10x_adc.o(i.ADC_ExternalTrigInjectedConvConfig), (16 bytes).
==============================================================================

Image Symbol Table

    Local Symbols

    Symbol Name                              Value     Ov Type        Size  Object(Section)

    ../clib/../cmprslib/zerorunl2.c          0x00000000   Number         0  __dczerorl2.o ABSOLUTE
    ../clib/microlib/errno.c                 0x00000000   Number         0  errno.o ABSOLUTE
    ../clib/microlib/init/entry.s            0x00000000   Number         0  entry2.o ABSOLUTE
    ../clib/microlib/init/entry.s            0x00000000   Number         0  entry9b.o ABSOLUTE
    ../clib/microlib/init/entry.s            0x00000000   Number         0  entry11a.o ABSOLUTE
    ../clib/microlib/init/entry.s            0x00000000   Number         0  entry.o ABSOLUTE
    ../clib/microlib/init/entry.s            0x00000000   Number         0  entry5.o ABSOLUTE
    ../clib/microlib/init/entry.s            0x00000000   Number         0  entry7a.o ABSOLUTE
    ../clib/microlib/init/entry.s            0x00000000   Number         0  entry9a.o ABSOLUTE
    ../clib/microlib/init/entry.s            0x00000000   Number         0  entry7b.o ABSOLUTE
    ../clib/microlib/init/entry.s            0x00000000   Number         0  entry8a.o ABSOLUTE
    ../clib/microlib/init/entry.s            0x00000000   Number         0  entry8b.o ABSOLUTE
    ../clib/microlib/init/entry.s            0x00000000   Number         0  entry11b.o ABSOLUTE
    ../clib/microlib/init/entry.s            0x00000000   Number         0  entry10a.o ABSOLUTE
    ../clib/microlib/init/entry.s            0x00000000   Number         0  entry10b.o ABSOLUTE
    ../clib/microlib/longlong.c              0x00000000   Number         0  llsshr.o ABSOLUTE
    ../clib/microlib/longlong.c              0x00000000   Number         0  llushr.o ABSOLUTE
    ../clib/microlib/longlong.c              0x00000000   Number         0  llshl.o ABSOLUTE
    ../clib/microlib/stubs.s                 0x00000000   Number         0  iusefp.o ABSOLUTE
    ../fplib/microlib/d2f.c                  0x00000000   Number         0  d2f.o ABSOLUTE
    ../fplib/microlib/f2d.c                  0x00000000   Number         0  f2d.o ABSOLUTE
    ../fplib/microlib/fpadd.c                0x00000000   Number         0  dadd.o ABSOLUTE
    ../fplib/microlib/fpadd.c                0x00000000   Number         0  fadd.o ABSOLUTE
    ../fplib/microlib/fpdiv.c                0x00000000   Number         0  fdiv.o ABSOLUTE
    ../fplib/microlib/fpdiv.c                0x00000000   Number         0  ddiv.o ABSOLUTE
    ../fplib/microlib/fpepilogue.c           0x00000000   Number         0  depilogue.o ABSOLUTE
    ../fplib/microlib/fpepilogue.c           0x00000000   Number         0  fepilogue.o ABSOLUTE
    ../fplib/microlib/fpfix.c                0x00000000   Number         0  ffixui.o ABSOLUTE
    ../fplib/microlib/fpfix.c                0x00000000   Number         0  dfixui.o ABSOLUTE
    ../fplib/microlib/fpfix.c                0x00000000   Number         0  dfixi.o ABSOLUTE
    ../fplib/microlib/fpflt.c                0x00000000   Number         0  ffltui.o ABSOLUTE
    ../fplib/microlib/fpflt.c                0x00000000   Number         0  dflti.o ABSOLUTE
    ../fplib/microlib/fpflt.c                0x00000000   Number         0  dfltui.o ABSOLUTE
    ../fplib/microlib/fpmul.c                0x00000000   Number         0  fmul.o ABSOLUTE
    ../fplib/microlib/fpmul.c                0x00000000   Number         0  dmul.o ABSOLUTE
    ../fplib/microlib/fpscalb.c              0x00000000   Number         0  dscalb.o ABSOLUTE
    ../fplib/microlib/fpsqrt.c               0x00000000   Number         0  dsqrt.o ABSOLUTE
    ../mathlib/atan.c                        0x00000000   Number         0  atan.o ABSOLUTE
    ../mathlib/atan.c                        0x00000000   Number         0  atan_x.o ABSOLUTE
    ../mathlib/atan2.c                       0x00000000   Number         0  atan2.o ABSOLUTE
    ../mathlib/atan2.c                       0x00000000   Number         0  atan2_x.o ABSOLUTE
    ../mathlib/cos_i.c                       0x00000000   Number         0  cos_i.o ABSOLUTE
    ../mathlib/dunder.c                      0x00000000   Number         0  dunder.o ABSOLUTE
    ../mathlib/fpclassify.c                  0x00000000   Number         0  fpclassify.o ABSOLUTE
    ../mathlib/poly.c                        0x00000000   Number         0  poly.o ABSOLUTE
    ../mathlib/pow.c                         0x00000000   Number         0  pow.o ABSOLUTE
    ../mathlib/pow.c                         0x00000000   Number         0  pow_x.o ABSOLUTE
    ../mathlib/qnan.c                        0x00000000   Number         0  qnan.o ABSOLUTE
    ../mathlib/rred.c                        0x00000000   Number         0  rred.o ABSOLUTE
    ../mathlib/sin.c                         0x00000000   Number         0  sin.o ABSOLUTE
    ../mathlib/sin.c                         0x00000000   Number         0  sin_x.o ABSOLUTE
    ../mathlib/sin_i.c                       0x00000000   Number         0  sin_i.o ABSOLUTE
    ../mathlib/sin_i.c                       0x00000000   Number         0  sin_i_x.o ABSOLUTE
    ../mathlib/sqrt.c                        0x00000000   Number         0  sqrt_x.o ABSOLUTE
    ../mathlib/sqrt.c                        0x00000000   Number         0  sqrt.o ABSOLUTE
    ..\Libraries\CMSIS\core_cm3.c            0x00000000   Number         0  core_cm3.o ABSOLUTE
    ..\Libraries\CMSIS\startup\startup_stm32f10x_hd.s 0x00000000   Number         0  startup_stm32f10x_hd.o ABSOLUTE
    ..\Libraries\CMSIS\system_stm32f10x.c    0x00000000   Number         0  system_stm32f10x.o ABSOLUTE
    ..\Libraries\FWlib\src\misc.c            0x00000000   Number         0  misc.o ABSOLUTE
    ..\Libraries\FWlib\src\stm32f10x_adc.c   0x00000000   Number         0  stm32f10x_adc.o ABSOLUTE
    ..\Libraries\FWlib\src\stm32f10x_dma.c   0x00000000   Number         0  stm32f10x_dma.o ABSOLUTE
    ..\Libraries\FWlib\src\stm32f10x_exti.c  0x00000000   Number         0  stm32f10x_exti.o ABSOLUTE
    ..\Libraries\FWlib\src\stm32f10x_gpio.c  0x00000000   Number         0  stm32f10x_gpio.o ABSOLUTE
    ..\Libraries\FWlib\src\stm32f10x_i2c.c   0x00000000   Number         0  stm32f10x_i2c.o ABSOLUTE
    ..\Libraries\FWlib\src\stm32f10x_rcc.c   0x00000000   Number         0  stm32f10x_rcc.o ABSOLUTE
    ..\Libraries\FWlib\src\stm32f10x_tim.c   0x00000000   Number         0  stm32f10x_tim.o ABSOLUTE
    ..\Libraries\FWlib\src\stm32f10x_usart.c 0x00000000   Number         0  stm32f10x_usart.o ABSOLUTE
    ..\User\buzzer\buzzer.c                  0x00000000   Number         0  buzzer.o ABSOLUTE
    ..\User\i2c\boardmpu.c                   0x00000000   Number         0  boardmpu.o ABSOLUTE
    ..\User\i2c\i2c1.c                       0x00000000   Number         0  i2c1.o ABSOLUTE
    ..\User\i2c\i2c2.c                       0x00000000   Number         0  i2c2.o ABSOLUTE
    ..\User\i2c\mpu6050.c                    0x00000000   Number         0  mpu6050.o ABSOLUTE
    ..\User\joystick\joystick.c              0x00000000   Number         0  joystick.o ABSOLUTE
    ..\User\led\led.c                        0x00000000   Number         0  led.o ABSOLUTE
    ..\User\lipo\lipo.c                      0x00000000   Number         0  lipo.o ABSOLUTE
    ..\User\main.c                           0x00000000   Number         0  main.o ABSOLUTE
    ..\User\motor\motor.c                    0x00000000   Number         0  motor.o ABSOLUTE
    ..\User\pid\pid.c                        0x00000000   Number         0  pid.o ABSOLUTE
    ..\User\stm32f10x_it.c                   0x00000000   Number         0  stm32f10x_it.o ABSOLUTE
    ..\User\systick\systick.c                0x00000000   Number         0  systick.o ABSOLUTE
    ..\User\uart\usart1.c                    0x00000000   Number         0  usart1.o ABSOLUTE
    ..\\Libraries\\CMSIS\\core_cm3.c         0x00000000   Number         0  core_cm3.o ABSOLUTE
    cdcmple.s                                0x00000000   Number         0  cdcmple.o ABSOLUTE
    cdrcmple.s                               0x00000000   Number         0  cdrcmple.o ABSOLUTE
    cfcmple.s                                0x00000000   Number         0  cfcmple.o ABSOLUTE
    cfrcmple.s                               0x00000000   Number         0  cfrcmple.o ABSOLUTE
    dc.s                                     0x00000000   Number         0  dc.o ABSOLUTE
    handlers.s                               0x00000000   Number         0  handlers.o ABSOLUTE
    init.s                                   0x00000000   Number         0  init.o ABSOLUTE
    RESET                                    0x08000000   Section      304  startup_stm32f10x_hd.o(RESET)
    .ARM.Collect$$$$00000000                 0x08000130   Section        0  entry.o(.ARM.Collect$$$$00000000)
    .ARM.Collect$$$$00000001                 0x08000130   Section        4  entry2.o(.ARM.Collect$$$$00000001)
    .ARM.Collect$$$$00000004                 0x08000134   Section        4  entry5.o(.ARM.Collect$$$$00000004)
    .ARM.Collect$$$$00000008                 0x08000138   Section        0  entry7b.o(.ARM.Collect$$$$00000008)
    .ARM.Collect$$$$0000000A                 0x08000138   Section        0  entry8b.o(.ARM.Collect$$$$0000000A)
    .ARM.Collect$$$$0000000B                 0x08000138   Section        8  entry9a.o(.ARM.Collect$$$$0000000B)
    .ARM.Collect$$$$0000000D                 0x08000140   Section        0  entry10a.o(.ARM.Collect$$$$0000000D)
    .ARM.Collect$$$$0000000F                 0x08000140   Section        0  entry11a.o(.ARM.Collect$$$$0000000F)
    .ARM.Collect$$$$00002712                 0x08000140   Section        4  entry2.o(.ARM.Collect$$$$00002712)
    __lit__00000000                          0x08000140   Data           4  entry2.o(.ARM.Collect$$$$00002712)
    .text                                    0x08000144   Section       36  startup_stm32f10x_hd.o(.text)
    .text                                    0x08000168   Section        0  fadd.o(.text)
    .text                                    0x08000218   Section        0  fmul.o(.text)
    .text                                    0x0800027c   Section        0  fdiv.o(.text)
    .text                                    0x080002f8   Section        0  dadd.o(.text)
    .text                                    0x08000446   Section        0  dmul.o(.text)
    .text                                    0x0800052a   Section        0  ddiv.o(.text)
    .text                                    0x08000608   Section        0  ffltui.o(.text)
    .text                                    0x08000612   Section        0  dflti.o(.text)
    .text                                    0x08000634   Section        0  dfltui.o(.text)
    .text                                    0x0800064e   Section        0  ffixui.o(.text)
    .text                                    0x08000676   Section        0  dfixui.o(.text)
    .text                                    0x080006a8   Section        0  f2d.o(.text)
    .text                                    0x080006d0   Section       48  cdcmple.o(.text)
    .text                                    0x08000700   Section       48  cdrcmple.o(.text)
    .text                                    0x08000730   Section        0  d2f.o(.text)
    .text                                    0x08000768   Section       20  cfcmple.o(.text)
    .text                                    0x0800077c   Section       20  cfrcmple.o(.text)
    .text                                    0x08000790   Section        0  llshl.o(.text)
    .text                                    0x080007ae   Section        0  llushr.o(.text)
    .text                                    0x080007ce   Section        0  llsshr.o(.text)
    .text                                    0x080007f2   Section        0  fepilogue.o(.text)
    .text                                    0x080007f2   Section        0  iusefp.o(.text)
    .text                                    0x08000860   Section        0  depilogue.o(.text)
    .text                                    0x0800091a   Section        0  dscalb.o(.text)
    .text                                    0x08000948   Section       36  init.o(.text)
    .text                                    0x0800096c   Section        0  dfixi.o(.text)
    .text                                    0x080009aa   Section        0  __dczerorl2.o(.text)
    i.ADC1_2_IRQHandler                      0x08000a00   Section        0  lipo.o(i.ADC1_2_IRQHandler)
    i.ADC_Cmd                                0x08000a18   Section        0  stm32f10x_adc.o(i.ADC_Cmd)
    i.ADC_DMACmd                             0x08000a2e   Section        0  stm32f10x_adc.o(i.ADC_DMACmd)
    i.ADC_GetCalibrationStatus               0x08000a44   Section        0  stm32f10x_adc.o(i.ADC_GetCalibrationStatus)
    i.ADC_GetConversionValue                 0x08000a58   Section        0  stm32f10x_adc.o(i.ADC_GetConversionValue)
    i.ADC_GetResetCalibrationStatus          0x08000a60   Section        0  stm32f10x_adc.o(i.ADC_GetResetCalibrationStatus)
    i.ADC_ITConfig                           0x08000a74   Section        0  stm32f10x_adc.o(i.ADC_ITConfig)
    i.ADC_Init                               0x08000a8c   Section        0  stm32f10x_adc.o(i.ADC_Init)
    i.ADC_RegularChannelConfig               0x08000adc   Section        0  stm32f10x_adc.o(i.ADC_RegularChannelConfig)
    i.ADC_ResetCalibration                   0x08000b94   Section        0  stm32f10x_adc.o(i.ADC_ResetCalibration)
    i.ADC_SoftwareStartConvCmd               0x08000b9e   Section        0  stm32f10x_adc.o(i.ADC_SoftwareStartConvCmd)
    i.ADC_StartCalibration                   0x08000bb4   Section        0  stm32f10x_adc.o(i.ADC_StartCalibration)
    i.BoardMpu_CalPitchRoll                  0x08000bc0   Section        0  boardmpu.o(i.BoardMpu_CalPitchRoll)
    i.BoardMpu_GetAccelData                  0x08000d28   Section        0  boardmpu.o(i.BoardMpu_GetAccelData)
    i.BoardMpu_GetDevID                      0x08000de8   Section        0  boardmpu.o(i.BoardMpu_GetDevID)
    i.BoardMpu_GetGyroData                   0x08000e04   Section        0  boardmpu.o(i.BoardMpu_GetGyroData)
    i.BoardMpu_Init                          0x08000ec8   Section        0  boardmpu.o(i.BoardMpu_Init)
    i.BoardMpu_SetDLPF                       0x08000f94   Section        0  boardmpu.o(i.BoardMpu_SetDLPF)
    i.BoardMpu_SetSampleRate                 0x08000fee   Section        0  boardmpu.o(i.BoardMpu_SetSampleRate)
    i.BusFault_Handler                       0x0800104c   Section        0  stm32f10x_it.o(i.BusFault_Handler)
    i.Buzzer_Init                            0x08001050   Section        0  buzzer.o(i.Buzzer_Init)
    i.CalledBySystickHandler                 0x08001084   Section        0  systick.o(i.CalledBySystickHandler)
    i.DMA_Cmd                                0x0800109c   Section        0  stm32f10x_dma.o(i.DMA_Cmd)
    i.DMA_DeInit                             0x080010b4   Section        0  stm32f10x_dma.o(i.DMA_DeInit)
    i.DMA_Init                               0x08001200   Section        0  stm32f10x_dma.o(i.DMA_Init)
    i.DebugMon_Handler                       0x0800123c   Section        0  stm32f10x_it.o(i.DebugMon_Handler)
    i.Delay_us                               0x08001240   Section        0  systick.o(i.Delay_us)
    i.GPIO_Init                              0x08001264   Section        0  stm32f10x_gpio.o(i.GPIO_Init)
    i.GPIO_ReadInputDataBit                  0x0800137a   Section        0  stm32f10x_gpio.o(i.GPIO_ReadInputDataBit)
    i.GPIO_ResetBits                         0x0800138c   Section        0  stm32f10x_gpio.o(i.GPIO_ResetBits)
    i.GPIO_SetBits                           0x08001390   Section        0  stm32f10x_gpio.o(i.GPIO_SetBits)
    i.GPIO_WriteBit                          0x08001394   Section        0  stm32f10x_gpio.o(i.GPIO_WriteBit)
    i.HardFault_Handler                      0x0800139e   Section        0  stm32f10x_it.o(i.HardFault_Handler)
    i.I2C1_Init                              0x080013a4   Section        0  i2c1.o(i.I2C1_Init)
    i.I2C1_ReadData                          0x080013d8   Section        0  i2c1.o(i.I2C1_ReadData)
    i.I2C1_RecvByte                          0x0800146c   Section        0  i2c1.o(i.I2C1_RecvByte)
    i.I2C1_SendACK                           0x08001500   Section        0  i2c1.o(i.I2C1_SendACK)
    i.I2C1_SendByte                          0x08001544   Section        0  i2c1.o(i.I2C1_SendByte)
    i.I2C1_Start                             0x080015a0   Section        0  i2c1.o(i.I2C1_Start)
    i.I2C1_Stop                              0x080015dc   Section        0  i2c1.o(i.I2C1_Stop)
    i.I2C1_WaitACK                           0x08001618   Section        0  i2c1.o(i.I2C1_WaitACK)
    i.I2C1_WriteData                         0x0800169c   Section        0  i2c1.o(i.I2C1_WriteData)
    i.I2C2_Init                              0x0800170c   Section        0  i2c2.o(i.I2C2_Init)
    i.I2C2_ReadData                          0x08001744   Section        0  i2c2.o(i.I2C2_ReadData)
    i.I2C2_RecvByte                          0x080017d8   Section        0  i2c2.o(i.I2C2_RecvByte)
    i.I2C2_SendACK                           0x08001878   Section        0  i2c2.o(i.I2C2_SendACK)
    i.I2C2_SendByte                          0x080018c4   Section        0  i2c2.o(i.I2C2_SendByte)
    i.I2C2_Start                             0x08001928   Section        0  i2c2.o(i.I2C2_Start)
    i.I2C2_Stop                              0x0800196c   Section        0  i2c2.o(i.I2C2_Stop)
    i.I2C2_WaitACK                           0x080019b0   Section        0  i2c2.o(i.I2C2_WaitACK)
    i.I2C2_WriteData                         0x08001a44   Section        0  i2c2.o(i.I2C2_WriteData)
    i.JoystickADC_Init                       0x08001ab4   Section        0  joystick.o(i.JoystickADC_Init)
    i.JoystickGPIO_Init                      0x08001bb4   Section        0  joystick.o(i.JoystickGPIO_Init)
    i.JoystickPara_Init                      0x08001bf4   Section        0  joystick.o(i.JoystickPara_Init)
    i.Joystick_CalXY                         0x08001c50   Section        0  joystick.o(i.Joystick_CalXY)
    i.Joystick_ConvertAngle                  0x08001ce8   Section        0  joystick.o(i.Joystick_ConvertAngle)
    i.Joystick_Init                          0x08001d9c   Section        0  joystick.o(i.Joystick_Init)
    i.Joystick_ObtainMode                    0x08001dac   Section        0  joystick.o(i.Joystick_ObtainMode)
    i.Led_Init                               0x08001e24   Section        0  led.o(i.Led_Init)
    i.LipoADC_Init                           0x08001e5c   Section        0  lipo.o(i.LipoADC_Init)
    i.LipoGPIO_Init                          0x08001f10   Section        0  lipo.o(i.LipoGPIO_Init)
    i.Lipo_CalVoltage                        0x08001f3c   Section        0  lipo.o(i.Lipo_CalVoltage)
    i.Lipo_Init                              0x08001fe0   Section        0  lipo.o(i.Lipo_Init)
    i.MedianFilter                           0x08001fec   Section        0  pid.o(i.MedianFilter)
    i.MemManage_Handler                      0x08002120   Section        0  stm32f10x_it.o(i.MemManage_Handler)
    i.Motor0_Run                             0x08002124   Section        0  motor.o(i.Motor0_Run)
    i.Motor0_SetPWM                          0x08002214   Section        0  motor.o(i.Motor0_SetPWM)
    i.Motor0_Shutdown                        0x08002254   Section        0  motor.o(i.Motor0_Shutdown)
    i.Motor1_Run                             0x0800227c   Section        0  motor.o(i.Motor1_Run)
    i.Motor1_SetPWM                          0x0800236c   Section        0  motor.o(i.Motor1_SetPWM)
    i.Motor1_Shutdown                        0x080023b0   Section        0  motor.o(i.Motor1_Shutdown)
    i.Motor2_Run                             0x080023d8   Section        0  motor.o(i.Motor2_Run)
    i.Motor2_SetPWM                          0x080024c8   Section        0  motor.o(i.Motor2_SetPWM)
    i.Motor2_Shutdown                        0x0800250c   Section        0  motor.o(i.Motor2_Shutdown)
    i.MotorPWM_Init                          0x08002534   Section        0  motor.o(i.MotorPWM_Init)
    i.MotorPos_Init                          0x080026c4   Section        0  motor.o(i.MotorPos_Init)
    i.Motor_Init                             0x080026d4   Section        0  motor.o(i.Motor_Init)
    i.Mpu6050_CalPitchRoll                   0x080026e4   Section        0  mpu6050.o(i.Mpu6050_CalPitchRoll)
    i.Mpu6050_GetAccelData                   0x08002858   Section        0  mpu6050.o(i.Mpu6050_GetAccelData)
    i.Mpu6050_GetDevID                       0x08002918   Section        0  mpu6050.o(i.Mpu6050_GetDevID)
    i.Mpu6050_GetGyroData                    0x08002934   Section        0  mpu6050.o(i.Mpu6050_GetGyroData)
    i.Mpu6050_Init                           0x080029f8   Section        0  mpu6050.o(i.Mpu6050_Init)
    i.Mpu6050_SetDLPF                        0x08002ac4   Section        0  mpu6050.o(i.Mpu6050_SetDLPF)
    i.Mpu6050_SetSampleRate                  0x08002b1e   Section        0  mpu6050.o(i.Mpu6050_SetSampleRate)
    i.NMI_Handler                            0x08002b7c   Section        0  stm32f10x_it.o(i.NMI_Handler)
    i.NVIC_Init                              0x08002b80   Section        0  misc.o(i.NVIC_Init)
    i.NVIC_PriorityGroupConfig               0x08002bf0   Section        0  misc.o(i.NVIC_PriorityGroupConfig)
    i.NVIC_SetPriority                       0x08002c04   Section        0  systick.o(i.NVIC_SetPriority)
    NVIC_SetPriority                         0x08002c05   Thumb Code    32  systick.o(i.NVIC_SetPriority)
    i.PID_Motor0                             0x08002c2c   Section        0  pid.o(i.PID_Motor0)
    i.PID_Motor1                             0x08002da0   Section        0  pid.o(i.PID_Motor1)
    i.PID_Motor2                             0x08002f14   Section        0  pid.o(i.PID_Motor2)
    i.PendSV_Handler                         0x0800307c   Section        0  stm32f10x_it.o(i.PendSV_Handler)
    i.RCC_ADCCLKConfig                       0x08003080   Section        0  stm32f10x_rcc.o(i.RCC_ADCCLKConfig)
    i.RCC_AHBPeriphClockCmd                  0x08003098   Section        0  stm32f10x_rcc.o(i.RCC_AHBPeriphClockCmd)
    i.RCC_APB1PeriphClockCmd                 0x080030b8   Section        0  stm32f10x_rcc.o(i.RCC_APB1PeriphClockCmd)
    i.RCC_APB2PeriphClockCmd                 0x080030d8   Section        0  stm32f10x_rcc.o(i.RCC_APB2PeriphClockCmd)
    i.SVC_Handler                            0x080030f8   Section        0  stm32f10x_it.o(i.SVC_Handler)
    i.SetSysClock                            0x080030fa   Section        0  system_stm32f10x.o(i.SetSysClock)
    SetSysClock                              0x080030fb   Thumb Code     8  system_stm32f10x.o(i.SetSysClock)
    i.SetSysClockTo72                        0x08003104   Section        0  system_stm32f10x.o(i.SetSysClockTo72)
    SetSysClockTo72                          0x08003105   Thumb Code   214  system_stm32f10x.o(i.SetSysClockTo72)
    i.SineArray_Init                         0x080031e4   Section        0  motor.o(i.SineArray_Init)
    i.SysTick_Handler                        0x08003328   Section        0  systick.o(i.SysTick_Handler)
    i.SystemInit                             0x08003330   Section        0  system_stm32f10x.o(i.SystemInit)
    i.Systick_Init                           0x08003390   Section        0  systick.o(i.Systick_Init)
    i.TIM_ARRPreloadConfig                   0x080033f4   Section        0  stm32f10x_tim.o(i.TIM_ARRPreloadConfig)
    i.TIM_CCxCmd                             0x0800340c   Section        0  stm32f10x_tim.o(i.TIM_CCxCmd)
    i.TIM_Cmd                                0x0800342a   Section        0  stm32f10x_tim.o(i.TIM_Cmd)
    i.TIM_OC1Init                            0x08003444   Section        0  stm32f10x_tim.o(i.TIM_OC1Init)
    i.TIM_OC1PreloadConfig                   0x080034dc   Section        0  stm32f10x_tim.o(i.TIM_OC1PreloadConfig)
    i.TIM_OC2Init                            0x080034f0   Section        0  stm32f10x_tim.o(i.TIM_OC2Init)
    i.TIM_OC2PreloadConfig                   0x08003594   Section        0  stm32f10x_tim.o(i.TIM_OC2PreloadConfig)
    i.TIM_OC3Init                            0x080035b0   Section        0  stm32f10x_tim.o(i.TIM_OC3Init)
    i.TIM_OC3PreloadConfig                   0x08003650   Section        0  stm32f10x_tim.o(i.TIM_OC3PreloadConfig)
    i.TIM_OC4Init                            0x08003664   Section        0  stm32f10x_tim.o(i.TIM_OC4Init)
    i.TIM_OC4PreloadConfig                   0x080036e0   Section        0  stm32f10x_tim.o(i.TIM_OC4PreloadConfig)
    i.TIM_SetCompare1                        0x080036fa   Section        0  stm32f10x_tim.o(i.TIM_SetCompare1)
    i.TIM_SetCompare2                        0x080036fe   Section        0  stm32f10x_tim.o(i.TIM_SetCompare2)
    i.TIM_SetCompare3                        0x08003702   Section        0  stm32f10x_tim.o(i.TIM_SetCompare3)
    i.TIM_SetCompare4                        0x08003706   Section        0  stm32f10x_tim.o(i.TIM_SetCompare4)
    i.TIM_TimeBaseInit                       0x0800370c   Section        0  stm32f10x_tim.o(i.TIM_TimeBaseInit)
    i.USART1_IRQHandler                      0x080037b0   Section        0  usart1.o(i.USART1_IRQHandler)
    i.USART_GetITStatus                      0x080037f4   Section        0  stm32f10x_usart.o(i.USART_GetITStatus)
    i.USART_ReceiveData                      0x08003848   Section        0  stm32f10x_usart.o(i.USART_ReceiveData)
    i.UsageFault_Handler                     0x08003852   Section        0  stm32f10x_it.o(i.UsageFault_Handler)
    i.__ARM_fpclassify                       0x08003856   Section        0  fpclassify.o(i.__ARM_fpclassify)
    i.__ieee754_rem_pio2                     0x08003880   Section        0  rred.o(i.__ieee754_rem_pio2)
    i.__kernel_cos                           0x08003c08   Section        0  cos_i.o(i.__kernel_cos)
    i.__kernel_poly                          0x08003d04   Section        0  poly.o(i.__kernel_poly)
    i.__kernel_sin                           0x08003db0   Section        0  sin_i.o(i.__kernel_sin)
    i.__mathlib_dbl_infnan                   0x08003e9c   Section        0  dunder.o(i.__mathlib_dbl_infnan)
    i.__mathlib_dbl_infnan2                  0x08003ea2   Section        0  dunder.o(i.__mathlib_dbl_infnan2)
    i.__mathlib_dbl_invalid                  0x08003ea6   Section        0  dunder.o(i.__mathlib_dbl_invalid)
    i.__mathlib_dbl_underflow                0x08003eb4   Section        0  dunder.o(i.__mathlib_dbl_underflow)
    i.__scatterload_copy                     0x08003ec4   Section       14  handlers.o(i.__scatterload_copy)
    i.__scatterload_null                     0x08003ed2   Section        2  handlers.o(i.__scatterload_null)
    i.__scatterload_zeroinit                 0x08003ed4   Section       14  handlers.o(i.__scatterload_zeroinit)
    i.__set_errno                            0x08003ee4   Section        0  errno.o(i.__set_errno)
    i.atan                                   0x08003ef0   Section        0  atan.o(i.atan)
    i.atan2                                  0x08004110   Section        0  atan2.o(i.atan2)
    i.main                                   0x08004290   Section        0  main.o(i.main)
    i.sin                                    0x080047ec   Section        0  sin.o(i.sin)
    .constdata                               0x0800488c   Section        2  motor.o(.constdata)
    mdir_cal_factor                          0x0800488c   Data           2  motor.o(.constdata)
    .constdata                               0x08004890   Section      152  atan.o(.constdata)
    atanhi                                   0x08004890   Data          32  atan.o(.constdata)
    atanlo                                   0x080048b0   Data          32  atan.o(.constdata)
    aTodd                                    0x080048d0   Data          40  atan.o(.constdata)
    aTeven                                   0x080048f8   Data          48  atan.o(.constdata)
    .constdata                               0x08004928   Section       48  cos_i.o(.constdata)
    C                                        0x08004928   Data          48  cos_i.o(.constdata)
    .constdata                               0x08004958   Section        8  qnan.o(.constdata)
    .constdata                               0x08004960   Section      200  rred.o(.constdata)
    pio2s                                    0x08004960   Data          48  rred.o(.constdata)
    twooverpi                                0x08004990   Data         152  rred.o(.constdata)
    .constdata                               0x08004a28   Section       40  sin_i.o(.constdata)
    S                                        0x08004a28   Data          40  sin_i.o(.constdata)
    .data                                    0x20000000   Section       20  system_stm32f10x.o(.data)
    .data                                    0x20000014   Section        4  systick.o(.data)
    SystickDelayedTime                       0x20000014   Data           4  systick.o(.data)
    .data                                    0x20000018   Section        8  i2c1.o(.data)
    SystickDelayedTime                       0x20000018   Data           4  i2c1.o(.data)
    i2c1GPIOInitStruct                       0x2000001c   Data           4  i2c1.o(.data)
    .data                                    0x20000020   Section       60  mpu6050.o(.data)
    SystickDelayedTime                       0x20000020   Data           4  mpu6050.o(.data)
    i2c2GPIOInitStruct                       0x20000024   Data           4  mpu6050.o(.data)
    AccelData                                0x20000028   Data           6  mpu6050.o(.data)
    TempData                                 0x2000002e   Data           2  mpu6050.o(.data)
    GyroData                                 0x20000030   Data           6  mpu6050.o(.data)
    .data                                    0x2000005c   Section       46  motor.o(.data)
    sineArraySize                            0x2000005c   Data           2  motor.o(.data)
    phaseShift                               0x2000005e   Data           2  motor.o(.data)
    mPitch                                   0x20000060   Data           6  motor.o(.data)
    mRoll                                    0x20000066   Data           6  motor.o(.data)
    mYaw                                     0x2000006c   Data           6  motor.o(.data)
    preSpeed                                 0x20000072   Data           2  motor.o(.data)
    timeout                                  0x20000074   Data           2  motor.o(.data)
    cntTime                                  0x20000076   Data           2  motor.o(.data)
    growthFactor                             0x20000078   Data           2  motor.o(.data)
    preSpeed                                 0x2000007a   Data           2  motor.o(.data)
    timeout                                  0x2000007c   Data           2  motor.o(.data)
    cntTime                                  0x2000007e   Data           2  motor.o(.data)
    growthFactor                             0x20000080   Data           2  motor.o(.data)
    preSpeed                                 0x20000082   Data           2  motor.o(.data)
    timeout                                  0x20000084   Data           2  motor.o(.data)
    cntTime                                  0x20000086   Data           2  motor.o(.data)
    growthFactor                             0x20000088   Data           2  motor.o(.data)
    .data                                    0x2000008a   Section        2  usart1.o(.data)
    .data                                    0x2000008c   Section      168  pid.o(.data)
    pitchPPara                               0x2000008c   Data           4  pid.o(.data)
    pitchIPara                               0x20000090   Data           4  pid.o(.data)
    pitchDPara                               0x20000094   Data           4  pid.o(.data)
    rollPPara                                0x20000098   Data           4  pid.o(.data)
    rollIPara                                0x2000009c   Data           4  pid.o(.data)
    rollDPara                                0x200000a0   Data           4  pid.o(.data)
    yawPPara                                 0x200000a4   Data           4  pid.o(.data)
    yawIPara                                 0x200000a8   Data           4  pid.o(.data)
    yawDPara                                 0x200000ac   Data           4  pid.o(.data)
    cntICal                                  0x200000b0   Data           2  pid.o(.data)
    expAngle_old                             0x200000b4   Data           4  pid.o(.data)
    et                                       0x200000b8   Data           4  pid.o(.data)
    et_pre                                   0x200000bc   Data           4  pid.o(.data)
    et_sum                                   0x200000c0   Data           4  pid.o(.data)
    et_diff                                  0x200000c4   Data           4  pid.o(.data)
    dpid                                     0x200000c8   Data           4  pid.o(.data)
    dP                                       0x200000cc   Data           4  pid.o(.data)
    dI                                       0x200000d0   Data           4  pid.o(.data)
    dD                                       0x200000d4   Data           4  pid.o(.data)
    indexICal                                0x200000d8   Data           4  pid.o(.data)
    expAngle_old                             0x200000dc   Data           4  pid.o(.data)
    et                                       0x200000e0   Data           4  pid.o(.data)
    et_pre                                   0x200000e4   Data           4  pid.o(.data)
    et_sum                                   0x200000e8   Data           4  pid.o(.data)
    et_diff                                  0x200000ec   Data           4  pid.o(.data)
    dpid                                     0x200000f0   Data           4  pid.o(.data)
    dP                                       0x200000f4   Data           4  pid.o(.data)
    dI                                       0x200000f8   Data           4  pid.o(.data)
    dD                                       0x200000fc   Data           4  pid.o(.data)
    indexICal                                0x20000100   Data           4  pid.o(.data)
    expAngle_old                             0x20000104   Data           4  pid.o(.data)
    et                                       0x20000108   Data           4  pid.o(.data)
    et_pre                                   0x2000010c   Data           4  pid.o(.data)
    et_sum                                   0x20000110   Data           4  pid.o(.data)
    et_diff                                  0x20000114   Data           4  pid.o(.data)
    dpid                                     0x20000118   Data           4  pid.o(.data)
    dP                                       0x2000011c   Data           4  pid.o(.data)
    dI                                       0x20000120   Data           4  pid.o(.data)
    dD                                       0x20000124   Data           4  pid.o(.data)
    indexICal                                0x20000128   Data           4  pid.o(.data)
    flagInit                                 0x2000012c   Data           1  pid.o(.data)
    cntMFData                                0x2000012e   Data           2  pid.o(.data)
    rtnValue                                 0x20000130   Data           4  pid.o(.data)
    .data                                    0x20000134   Section       64  boardmpu.o(.data)
    SystickDelayedTime                       0x20000134   Data           4  boardmpu.o(.data)
    i2c1GPIOInitStruct                       0x20000138   Data           4  boardmpu.o(.data)
    i2c2GPIOInitStruct                       0x2000013c   Data           4  boardmpu.o(.data)
    AccelData                                0x20000140   Data           6  boardmpu.o(.data)
    TempData                                 0x20000146   Data           2  boardmpu.o(.data)
    GyroData                                 0x20000148   Data           6  boardmpu.o(.data)
    .data                                    0x20000174   Section        8  i2c2.o(.data)
    SystickDelayedTime                       0x20000174   Data           4  i2c2.o(.data)
    i2c2GPIOInitStruct                       0x20000178   Data           4  i2c2.o(.data)
    .data                                    0x2000017c   Section        8  lipo.o(.data)
    ADC2_Value                               0x2000017c   Data           2  lipo.o(.data)
    .data                                    0x20000184   Section       27  joystick.o(.data)
    ADC1_Value                               0x20000184   Data           4  joystick.o(.data)
    K_X                                      0x20000188   Data           4  joystick.o(.data)
    K_Y                                      0x2000018c   Data           4  joystick.o(.data)
    B_X                                      0x20000190   Data           4  joystick.o(.data)
    B_Y                                      0x20000194   Data           4  joystick.o(.data)
    cntKeyDown                               0x2000019e   Data           1  joystick.o(.data)
    .data                                    0x200001a0   Section        4  errno.o(.data)
    _errno                                   0x200001a0   Data           4  errno.o(.data)
    .bss                                     0x200001a4   Section     4096  motor.o(.bss)
    pwmSin                                   0x200001a4   Data        4096  motor.o(.bss)
    .bss                                     0x200011a4   Section      256  usart1.o(.bss)
    .bss                                     0x200012a4   Section      284  pid.o(.bss)
    debugPara                                0x200012a4   Data          36  pid.o(.bss)
    mfData                                   0x200012c8   Data         124  pid.o(.bss)
    mfSort                                   0x20001344   Data         124  pid.o(.bss)
    STACK                                    0x200013c0   Section     1024  startup_stm32f10x_hd.o(STACK)

    Global Symbols

    Symbol Name                              Value     Ov Type        Size  Object(Section)

    BuildAttributes$$THM_ISAv4$P$D$K$B$S$PE$A:L22UL41UL21$X:L11$S22US41US21$IEEE1$IW$USESV6$~STKCKD$USESV7$~SHL$OTIME$ROPI$IEEEX$EBA8$MICROLIB$REQ8$PRES8$EABIv2 0x00000000   Number         0  anon$$obj.o ABSOLUTE
    __ARM_use_no_argv                        0x00000000   Number         0  main.o ABSOLUTE
    __cpp_initialize__aeabi_                  - Undefined Weak Reference
    __cxa_finalize                            - Undefined Weak Reference
    _clock_init                               - Undefined Weak Reference
    _microlib_exit                            - Undefined Weak Reference
    __Vectors_Size                           0x00000130   Number         0  startup_stm32f10x_hd.o ABSOLUTE
    __Vectors                                0x08000000   Data           4  startup_stm32f10x_hd.o(RESET)
    __Vectors_End                            0x08000130   Data           0  startup_stm32f10x_hd.o(RESET)
    __main                                   0x08000131   Thumb Code     0  entry.o(.ARM.Collect$$$$00000000)
    _main_stk                                0x08000131   Thumb Code     0  entry2.o(.ARM.Collect$$$$00000001)
    _main_scatterload                        0x08000135   Thumb Code     0  entry5.o(.ARM.Collect$$$$00000004)
    __main_after_scatterload                 0x08000139   Thumb Code     0  entry5.o(.ARM.Collect$$$$00000004)
    _main_clock                              0x08000139   Thumb Code     0  entry7b.o(.ARM.Collect$$$$00000008)
    _main_cpp_init                           0x08000139   Thumb Code     0  entry8b.o(.ARM.Collect$$$$0000000A)
    _main_init                               0x08000139   Thumb Code     0  entry9a.o(.ARM.Collect$$$$0000000B)
    __rt_final_cpp                           0x08000141   Thumb Code     0  entry10a.o(.ARM.Collect$$$$0000000D)
    __rt_final_exit                          0x08000141   Thumb Code     0  entry11a.o(.ARM.Collect$$$$0000000F)
    Reset_Handler                            0x08000145   Thumb Code     8  startup_stm32f10x_hd.o(.text)
    ADC3_IRQHandler                          0x0800015f   Thumb Code     0  startup_stm32f10x_hd.o(.text)
    CAN1_RX1_IRQHandler                      0x0800015f   Thumb Code     0  startup_stm32f10x_hd.o(.text)
    CAN1_SCE_IRQHandler                      0x0800015f   Thumb Code     0  startup_stm32f10x_hd.o(.text)
    DMA1_Channel1_IRQHandler                 0x0800015f   Thumb Code     0  startup_stm32f10x_hd.o(.text)
    DMA1_Channel2_IRQHandler                 0x0800015f   Thumb Code     0  startup_stm32f10x_hd.o(.text)
    DMA1_Channel3_IRQHandler                 0x0800015f   Thumb Code     0  startup_stm32f10x_hd.o(.text)
    DMA1_Channel4_IRQHandler                 0x0800015f   Thumb Code     0  startup_stm32f10x_hd.o(.text)
    DMA1_Channel5_IRQHandler                 0x0800015f   Thumb Code     0  startup_stm32f10x_hd.o(.text)
    DMA1_Channel6_IRQHandler                 0x0800015f   Thumb Code     0  startup_stm32f10x_hd.o(.text)
    DMA1_Channel7_IRQHandler                 0x0800015f   Thumb Code     0  startup_stm32f10x_hd.o(.text)
    DMA2_Channel1_IRQHandler                 0x0800015f   Thumb Code     0  startup_stm32f10x_hd.o(.text)
    DMA2_Channel2_IRQHandler                 0x0800015f   Thumb Code     0  startup_stm32f10x_hd.o(.text)
    DMA2_Channel3_IRQHandler                 0x0800015f   Thumb Code     0  startup_stm32f10x_hd.o(.text)
    DMA2_Channel4_5_IRQHandler               0x0800015f   Thumb Code     0  startup_stm32f10x_hd.o(.text)
    EXTI0_IRQHandler                         0x0800015f   Thumb Code     0  startup_stm32f10x_hd.o(.text)
    EXTI15_10_IRQHandler                     0x0800015f   Thumb Code     0  startup_stm32f10x_hd.o(.text)
    EXTI1_IRQHandler                         0x0800015f   Thumb Code     0  startup_stm32f10x_hd.o(.text)
    EXTI2_IRQHandler                         0x0800015f   Thumb Code     0  startup_stm32f10x_hd.o(.text)
    EXTI3_IRQHandler                         0x0800015f   Thumb Code     0  startup_stm32f10x_hd.o(.text)
    EXTI4_IRQHandler                         0x0800015f   Thumb Code     0  startup_stm32f10x_hd.o(.text)
    EXTI9_5_IRQHandler                       0x0800015f   Thumb Code     0  startup_stm32f10x_hd.o(.text)
    FLASH_IRQHandler                         0x0800015f   Thumb Code     0  startup_stm32f10x_hd.o(.text)
    FSMC_IRQHandler                          0x0800015f   Thumb Code     0  startup_stm32f10x_hd.o(.text)
    I2C1_ER_IRQHandler                       0x0800015f   Thumb Code     0  startup_stm32f10x_hd.o(.text)
    I2C1_EV_IRQHandler                       0x0800015f   Thumb Code     0  startup_stm32f10x_hd.o(.text)
    I2C2_ER_IRQHandler                       0x0800015f   Thumb Code     0  startup_stm32f10x_hd.o(.text)
    I2C2_EV_IRQHandler                       0x0800015f   Thumb Code     0  startup_stm32f10x_hd.o(.text)
    PVD_IRQHandler                           0x0800015f   Thumb Code     0  startup_stm32f10x_hd.o(.text)
    RCC_IRQHandler                           0x0800015f   Thumb Code     0  startup_stm32f10x_hd.o(.text)
    RTCAlarm_IRQHandler                      0x0800015f   Thumb Code     0  startup_stm32f10x_hd.o(.text)
    RTC_IRQHandler                           0x0800015f   Thumb Code     0  startup_stm32f10x_hd.o(.text)
    SDIO_IRQHandler                          0x0800015f   Thumb Code     0  startup_stm32f10x_hd.o(.text)
    SPI1_IRQHandler                          0x0800015f   Thumb Code     0  startup_stm32f10x_hd.o(.text)
    SPI2_IRQHandler                          0x0800015f   Thumb Code     0  startup_stm32f10x_hd.o(.text)
    SPI3_IRQHandler                          0x0800015f   Thumb Code     0  startup_stm32f10x_hd.o(.text)
    TAMPER_IRQHandler                        0x0800015f   Thumb Code     0  startup_stm32f10x_hd.o(.text)
    TIM1_BRK_IRQHandler                      0x0800015f   Thumb Code     0  startup_stm32f10x_hd.o(.text)
    TIM1_CC_IRQHandler                       0x0800015f   Thumb Code     0  startup_stm32f10x_hd.o(.text)
    TIM1_TRG_COM_IRQHandler                  0x0800015f   Thumb Code     0  startup_stm32f10x_hd.o(.text)
    TIM1_UP_IRQHandler                       0x0800015f   Thumb Code     0  startup_stm32f10x_hd.o(.text)
    TIM2_IRQHandler                          0x0800015f   Thumb Code     0  startup_stm32f10x_hd.o(.text)
    TIM3_IRQHandler                          0x0800015f   Thumb Code     0  startup_stm32f10x_hd.o(.text)
    TIM4_IRQHandler                          0x0800015f   Thumb Code     0  startup_stm32f10x_hd.o(.text)
    TIM5_IRQHandler                          0x0800015f   Thumb Code     0  startup_stm32f10x_hd.o(.text)
    TIM6_IRQHandler                          0x0800015f   Thumb Code     0  startup_stm32f10x_hd.o(.text)
    TIM7_IRQHandler                          0x0800015f   Thumb Code     0  startup_stm32f10x_hd.o(.text)
    TIM8_BRK_IRQHandler                      0x0800015f   Thumb Code     0  startup_stm32f10x_hd.o(.text)
    TIM8_CC_IRQHandler                       0x0800015f   Thumb Code     0  startup_stm32f10x_hd.o(.text)
    TIM8_TRG_COM_IRQHandler                  0x0800015f   Thumb Code     0  startup_stm32f10x_hd.o(.text)
    TIM8_UP_IRQHandler                       0x0800015f   Thumb Code     0  startup_stm32f10x_hd.o(.text)
    UART4_IRQHandler                         0x0800015f   Thumb Code     0  startup_stm32f10x_hd.o(.text)
    UART5_IRQHandler                         0x0800015f   Thumb Code     0  startup_stm32f10x_hd.o(.text)
    USART2_IRQHandler                        0x0800015f   Thumb Code     0  startup_stm32f10x_hd.o(.text)
    USART3_IRQHandler                        0x0800015f   Thumb Code     0  startup_stm32f10x_hd.o(.text)
    USBWakeUp_IRQHandler                     0x0800015f   Thumb Code     0  startup_stm32f10x_hd.o(.text)
    USB_HP_CAN1_TX_IRQHandler                0x0800015f   Thumb Code     0  startup_stm32f10x_hd.o(.text)
    USB_LP_CAN1_RX0_IRQHandler               0x0800015f   Thumb Code     0  startup_stm32f10x_hd.o(.text)
    WWDG_IRQHandler                          0x0800015f   Thumb Code     0  startup_stm32f10x_hd.o(.text)
    __aeabi_fadd                             0x08000169   Thumb Code   164  fadd.o(.text)
    __aeabi_fsub                             0x0800020d   Thumb Code     6  fadd.o(.text)
    __aeabi_frsub                            0x08000213   Thumb Code     6  fadd.o(.text)
    __aeabi_fmul                             0x08000219   Thumb Code   100  fmul.o(.text)
    __aeabi_fdiv                             0x0800027d   Thumb Code   124  fdiv.o(.text)
    __aeabi_dadd                             0x080002f9   Thumb Code   322  dadd.o(.text)
    __aeabi_dsub                             0x0800043b   Thumb Code     6  dadd.o(.text)
    __aeabi_drsub                            0x08000441   Thumb Code     6  dadd.o(.text)
    __aeabi_dmul                             0x08000447   Thumb Code   228  dmul.o(.text)
    __aeabi_ddiv                             0x0800052b   Thumb Code   222  ddiv.o(.text)
    __aeabi_ui2f                             0x08000609   Thumb Code    10  ffltui.o(.text)
    __aeabi_i2d                              0x08000613   Thumb Code    34  dflti.o(.text)
    __aeabi_ui2d                             0x08000635   Thumb Code    26  dfltui.o(.text)
    __aeabi_f2uiz                            0x0800064f   Thumb Code    40  ffixui.o(.text)
    __aeabi_d2uiz                            0x08000677   Thumb Code    50  dfixui.o(.text)
    __aeabi_f2d                              0x080006a9   Thumb Code    38  f2d.o(.text)
    __aeabi_cdcmpeq                          0x080006d1   Thumb Code     0  cdcmple.o(.text)
    __aeabi_cdcmple                          0x080006d1   Thumb Code    48  cdcmple.o(.text)
    __aeabi_cdrcmple                         0x08000701   Thumb Code    48  cdrcmple.o(.text)
    __aeabi_d2f                              0x08000731   Thumb Code    56  d2f.o(.text)
    __aeabi_cfcmpeq                          0x08000769   Thumb Code     0  cfcmple.o(.text)
    __aeabi_cfcmple                          0x08000769   Thumb Code    20  cfcmple.o(.text)
    __aeabi_cfrcmple                         0x0800077d   Thumb Code    20  cfrcmple.o(.text)
    __aeabi_llsl                             0x08000791   Thumb Code    30  llshl.o(.text)
    _ll_shift_l                              0x08000791   Thumb Code     0  llshl.o(.text)
    __aeabi_llsr                             0x080007af   Thumb Code    32  llushr.o(.text)
    _ll_ushift_r                             0x080007af   Thumb Code     0  llushr.o(.text)
    __aeabi_lasr                             0x080007cf   Thumb Code    36  llsshr.o(.text)
    _ll_sshift_r                             0x080007cf   Thumb Code     0  llsshr.o(.text)
    __I$use$fp                               0x080007f3   Thumb Code     0  iusefp.o(.text)
    _float_round                             0x080007f3   Thumb Code    18  fepilogue.o(.text)
    _float_epilogue                          0x08000805   Thumb Code    92  fepilogue.o(.text)
    _double_round                            0x08000861   Thumb Code    30  depilogue.o(.text)
    _double_epilogue                         0x0800087f   Thumb Code   156  depilogue.o(.text)
    __ARM_scalbn                             0x0800091b   Thumb Code    46  dscalb.o(.text)
    scalbn                                   0x0800091b   Thumb Code     0  dscalb.o(.text)
    __scatterload                            0x08000949   Thumb Code    28  init.o(.text)
    __scatterload_rt2                        0x08000949   Thumb Code     0  init.o(.text)
    __aeabi_d2iz                             0x0800096d   Thumb Code    62  dfixi.o(.text)
    __decompress                             0x080009ab   Thumb Code     0  __dczerorl2.o(.text)
    __decompress1                            0x080009ab   Thumb Code    86  __dczerorl2.o(.text)
    ADC1_2_IRQHandler                        0x08000a01   Thumb Code    14  lipo.o(i.ADC1_2_IRQHandler)
    ADC_Cmd                                  0x08000a19   Thumb Code    22  stm32f10x_adc.o(i.ADC_Cmd)
    ADC_DMACmd                               0x08000a2f   Thumb Code    22  stm32f10x_adc.o(i.ADC_DMACmd)
    ADC_GetCalibrationStatus                 0x08000a45   Thumb Code    20  stm32f10x_adc.o(i.ADC_GetCalibrationStatus)
    ADC_GetConversionValue                   0x08000a59   Thumb Code     8  stm32f10x_adc.o(i.ADC_GetConversionValue)
    ADC_GetResetCalibrationStatus            0x08000a61   Thumb Code    20  stm32f10x_adc.o(i.ADC_GetResetCalibrationStatus)
    ADC_ITConfig                             0x08000a75   Thumb Code    24  stm32f10x_adc.o(i.ADC_ITConfig)
    ADC_Init                                 0x08000a8d   Thumb Code    70  stm32f10x_adc.o(i.ADC_Init)
    ADC_RegularChannelConfig                 0x08000add   Thumb Code   184  stm32f10x_adc.o(i.ADC_RegularChannelConfig)
    ADC_ResetCalibration                     0x08000b95   Thumb Code    10  stm32f10x_adc.o(i.ADC_ResetCalibration)
    ADC_SoftwareStartConvCmd                 0x08000b9f   Thumb Code    22  stm32f10x_adc.o(i.ADC_SoftwareStartConvCmd)
    ADC_StartCalibration                     0x08000bb5   Thumb Code    10  stm32f10x_adc.o(i.ADC_StartCalibration)
    BoardMpu_CalPitchRoll                    0x08000bc1   Thumb Code   318  boardmpu.o(i.BoardMpu_CalPitchRoll)
    BoardMpu_GetAccelData                    0x08000d29   Thumb Code   170  boardmpu.o(i.BoardMpu_GetAccelData)
    BoardMpu_GetDevID                        0x08000de9   Thumb Code    24  boardmpu.o(i.BoardMpu_GetDevID)
    BoardMpu_GetGyroData                     0x08000e05   Thumb Code   170  boardmpu.o(i.BoardMpu_GetGyroData)
    BoardMpu_Init                            0x08000ec9   Thumb Code   198  boardmpu.o(i.BoardMpu_Init)
    BoardMpu_SetDLPF                         0x08000f95   Thumb Code    90  boardmpu.o(i.BoardMpu_SetDLPF)
    BoardMpu_SetSampleRate                   0x08000fef   Thumb Code    94  boardmpu.o(i.BoardMpu_SetSampleRate)
    BusFault_Handler                         0x0800104d   Thumb Code     4  stm32f10x_it.o(i.BusFault_Handler)
    Buzzer_Init                              0x08001051   Thumb Code    46  buzzer.o(i.Buzzer_Init)
    CalledBySystickHandler                   0x08001085   Thumb Code    18  systick.o(i.CalledBySystickHandler)
    DMA_Cmd                                  0x0800109d   Thumb Code    24  stm32f10x_dma.o(i.DMA_Cmd)
    DMA_DeInit                               0x080010b5   Thumb Code   324  stm32f10x_dma.o(i.DMA_DeInit)
    DMA_Init                                 0x08001201   Thumb Code    60  stm32f10x_dma.o(i.DMA_Init)
    DebugMon_Handler                         0x0800123d   Thumb Code     2  stm32f10x_it.o(i.DebugMon_Handler)
    Delay_us                                 0x08001241   Thumb Code    32  systick.o(i.Delay_us)
    GPIO_Init                                0x08001265   Thumb Code   278  stm32f10x_gpio.o(i.GPIO_Init)
    GPIO_ReadInputDataBit                    0x0800137b   Thumb Code    18  stm32f10x_gpio.o(i.GPIO_ReadInputDataBit)
    GPIO_ResetBits                           0x0800138d   Thumb Code     4  stm32f10x_gpio.o(i.GPIO_ResetBits)
    GPIO_SetBits                             0x08001391   Thumb Code     4  stm32f10x_gpio.o(i.GPIO_SetBits)
    GPIO_WriteBit                            0x08001395   Thumb Code    10  stm32f10x_gpio.o(i.GPIO_WriteBit)
    HardFault_Handler                        0x0800139f   Thumb Code     4  stm32f10x_it.o(i.HardFault_Handler)
    I2C1_Init                                0x080013a5   Thumb Code    42  i2c1.o(i.I2C1_Init)
    I2C1_ReadData                            0x080013d9   Thumb Code   148  i2c1.o(i.I2C1_ReadData)
    I2C1_RecvByte                            0x0800146d   Thumb Code   138  i2c1.o(i.I2C1_RecvByte)
    I2C1_SendACK                             0x08001501   Thumb Code    64  i2c1.o(i.I2C1_SendACK)
    I2C1_SendByte                            0x08001545   Thumb Code    86  i2c1.o(i.I2C1_SendByte)
    I2C1_Start                               0x080015a1   Thumb Code    54  i2c1.o(i.I2C1_Start)
    I2C1_Stop                                0x080015dd   Thumb Code    54  i2c1.o(i.I2C1_Stop)
    I2C1_WaitACK                             0x08001619   Thumb Code   124  i2c1.o(i.I2C1_WaitACK)
    I2C1_WriteData                           0x0800169d   Thumb Code   110  i2c1.o(i.I2C1_WriteData)
    I2C2_Init                                0x0800170d   Thumb Code    46  i2c2.o(i.I2C2_Init)
    I2C2_ReadData                            0x08001745   Thumb Code   148  i2c2.o(i.I2C2_ReadData)
    I2C2_RecvByte                            0x080017d9   Thumb Code   152  i2c2.o(i.I2C2_RecvByte)
    I2C2_SendACK                             0x08001879   Thumb Code    72  i2c2.o(i.I2C2_SendACK)
    I2C2_SendByte                            0x080018c5   Thumb Code    94  i2c2.o(i.I2C2_SendByte)
    I2C2_Start                               0x08001929   Thumb Code    62  i2c2.o(i.I2C2_Start)
    I2C2_Stop                                0x0800196d   Thumb Code    62  i2c2.o(i.I2C2_Stop)
    I2C2_WaitACK                             0x080019b1   Thumb Code   138  i2c2.o(i.I2C2_WaitACK)
    I2C2_WriteData                           0x08001a45   Thumb Code   110  i2c2.o(i.I2C2_WriteData)
    JoystickADC_Init                         0x08001ab5   Thumb Code   242  joystick.o(i.JoystickADC_Init)
    JoystickGPIO_Init                        0x08001bb5   Thumb Code    58  joystick.o(i.JoystickGPIO_Init)
    JoystickPara_Init                        0x08001bf5   Thumb Code    60  joystick.o(i.JoystickPara_Init)
    Joystick_CalXY                           0x08001c51   Thumb Code   138  joystick.o(i.Joystick_CalXY)
    Joystick_ConvertAngle                    0x08001ce9   Thumb Code   156  joystick.o(i.Joystick_ConvertAngle)
    Joystick_Init                            0x08001d9d   Thumb Code    16  joystick.o(i.Joystick_Init)
    Joystick_ObtainMode                      0x08001dad   Thumb Code   108  joystick.o(i.Joystick_ObtainMode)
    Led_Init                                 0x08001e25   Thumb Code    50  led.o(i.Led_Init)
    LipoADC_Init                             0x08001e5d   Thumb Code   176  lipo.o(i.LipoADC_Init)
    LipoGPIO_Init                            0x08001f11   Thumb Code    38  lipo.o(i.LipoGPIO_Init)
    Lipo_CalVoltage                          0x08001f3d   Thumb Code   144  lipo.o(i.Lipo_CalVoltage)
    Lipo_Init                                0x08001fe1   Thumb Code    12  lipo.o(i.Lipo_Init)
    MedianFilter                             0x08001fed   Thumb Code   284  pid.o(i.MedianFilter)
    MemManage_Handler                        0x08002121   Thumb Code     4  stm32f10x_it.o(i.MemManage_Handler)
    Motor0_Run                               0x08002125   Thumb Code   212  motor.o(i.Motor0_Run)
    Motor0_SetPWM                            0x08002215   Thumb Code    52  motor.o(i.Motor0_SetPWM)
    Motor0_Shutdown                          0x08002255   Thumb Code    34  motor.o(i.Motor0_Shutdown)
    Motor1_Run                               0x0800227d   Thumb Code   212  motor.o(i.Motor1_Run)
    Motor1_SetPWM                            0x0800236d   Thumb Code    56  motor.o(i.Motor1_SetPWM)
    Motor1_Shutdown                          0x080023b1   Thumb Code    36  motor.o(i.Motor1_Shutdown)
    Motor2_Run                               0x080023d9   Thumb Code   212  motor.o(i.Motor2_Run)
    Motor2_SetPWM                            0x080024c9   Thumb Code    54  motor.o(i.Motor2_SetPWM)
    Motor2_Shutdown                          0x0800250d   Thumb Code    34  motor.o(i.Motor2_Shutdown)
    MotorPWM_Init                            0x08002535   Thumb Code   384  motor.o(i.MotorPWM_Init)
    MotorPos_Init                            0x080026c5   Thumb Code    16  motor.o(i.MotorPos_Init)
    Motor_Init                               0x080026d5   Thumb Code    16  motor.o(i.Motor_Init)
    Mpu6050_CalPitchRoll                     0x080026e5   Thumb Code   326  mpu6050.o(i.Mpu6050_CalPitchRoll)
    Mpu6050_GetAccelData                     0x08002859   Thumb Code   170  mpu6050.o(i.Mpu6050_GetAccelData)
    Mpu6050_GetDevID                         0x08002919   Thumb Code    24  mpu6050.o(i.Mpu6050_GetDevID)
    Mpu6050_GetGyroData                      0x08002935   Thumb Code   170  mpu6050.o(i.Mpu6050_GetGyroData)
    Mpu6050_Init                             0x080029f9   Thumb Code   198  mpu6050.o(i.Mpu6050_Init)
    Mpu6050_SetDLPF                          0x08002ac5   Thumb Code    90  mpu6050.o(i.Mpu6050_SetDLPF)
    Mpu6050_SetSampleRate                    0x08002b1f   Thumb Code    94  mpu6050.o(i.Mpu6050_SetSampleRate)
    NMI_Handler                              0x08002b7d   Thumb Code     2  stm32f10x_it.o(i.NMI_Handler)
    NVIC_Init                                0x08002b81   Thumb Code   100  misc.o(i.NVIC_Init)
    NVIC_PriorityGroupConfig                 0x08002bf1   Thumb Code    10  misc.o(i.NVIC_PriorityGroupConfig)
    PID_Motor0                               0x08002c2d   Thumb Code   308  pid.o(i.PID_Motor0)
    PID_Motor1                               0x08002da1   Thumb Code   308  pid.o(i.PID_Motor1)
    PID_Motor2                               0x08002f15   Thumb Code   296  pid.o(i.PID_Motor2)
    PendSV_Handler                           0x0800307d   Thumb Code     2  stm32f10x_it.o(i.PendSV_Handler)
    RCC_ADCCLKConfig                         0x08003081   Thumb Code    18  stm32f10x_rcc.o(i.RCC_ADCCLKConfig)
    RCC_AHBPeriphClockCmd                    0x08003099   Thumb Code    26  stm32f10x_rcc.o(i.RCC_AHBPeriphClockCmd)
    RCC_APB1PeriphClockCmd                   0x080030b9   Thumb Code    26  stm32f10x_rcc.o(i.RCC_APB1PeriphClockCmd)
    RCC_APB2PeriphClockCmd                   0x080030d9   Thumb Code    26  stm32f10x_rcc.o(i.RCC_APB2PeriphClockCmd)
    SVC_Handler                              0x080030f9   Thumb Code     2  stm32f10x_it.o(i.SVC_Handler)
    SineArray_Init                           0x080031e5   Thumb Code   284  motor.o(i.SineArray_Init)
    SysTick_Handler                          0x08003329   Thumb Code     8  systick.o(i.SysTick_Handler)
    SystemInit                               0x08003331   Thumb Code    78  system_stm32f10x.o(i.SystemInit)
    Systick_Init                             0x08003391   Thumb Code    90  systick.o(i.Systick_Init)
    TIM_ARRPreloadConfig                     0x080033f5   Thumb Code    24  stm32f10x_tim.o(i.TIM_ARRPreloadConfig)
    TIM_CCxCmd                               0x0800340d   Thumb Code    30  stm32f10x_tim.o(i.TIM_CCxCmd)
    TIM_Cmd                                  0x0800342b   Thumb Code    24  stm32f10x_tim.o(i.TIM_Cmd)
    TIM_OC1Init                              0x08003445   Thumb Code   132  stm32f10x_tim.o(i.TIM_OC1Init)
    TIM_OC1PreloadConfig                     0x080034dd   Thumb Code    18  stm32f10x_tim.o(i.TIM_OC1PreloadConfig)
    TIM_OC2Init                              0x080034f1   Thumb Code   154  stm32f10x_tim.o(i.TIM_OC2Init)
    TIM_OC2PreloadConfig                     0x08003595   Thumb Code    26  stm32f10x_tim.o(i.TIM_OC2PreloadConfig)
    TIM_OC3Init                              0x080035b1   Thumb Code   150  stm32f10x_tim.o(i.TIM_OC3Init)
    TIM_OC3PreloadConfig                     0x08003651   Thumb Code    18  stm32f10x_tim.o(i.TIM_OC3PreloadConfig)
    TIM_OC4Init                              0x08003665   Thumb Code   114  stm32f10x_tim.o(i.TIM_OC4Init)
    TIM_OC4PreloadConfig                     0x080036e1   Thumb Code    26  stm32f10x_tim.o(i.TIM_OC4PreloadConfig)
    TIM_SetCompare1                          0x080036fb   Thumb Code     4  stm32f10x_tim.o(i.TIM_SetCompare1)
    TIM_SetCompare2                          0x080036ff   Thumb Code     4  stm32f10x_tim.o(i.TIM_SetCompare2)
    TIM_SetCompare3                          0x08003703   Thumb Code     4  stm32f10x_tim.o(i.TIM_SetCompare3)
    TIM_SetCompare4                          0x08003707   Thumb Code     6  stm32f10x_tim.o(i.TIM_SetCompare4)
    TIM_TimeBaseInit                         0x0800370d   Thumb Code   122  stm32f10x_tim.o(i.TIM_TimeBaseInit)
    USART1_IRQHandler                        0x080037b1   Thumb Code    54  usart1.o(i.USART1_IRQHandler)
    USART_GetITStatus                        0x080037f5   Thumb Code    84  stm32f10x_usart.o(i.USART_GetITStatus)
    USART_ReceiveData                        0x08003849   Thumb Code    10  stm32f10x_usart.o(i.USART_ReceiveData)
    UsageFault_Handler                       0x08003853   Thumb Code     4  stm32f10x_it.o(i.UsageFault_Handler)
    __ARM_fpclassify                         0x08003857   Thumb Code    40  fpclassify.o(i.__ARM_fpclassify)
    __ieee754_rem_pio2                       0x08003881   Thumb Code   828  rred.o(i.__ieee754_rem_pio2)
    __kernel_cos                             0x08003c09   Thumb Code   230  cos_i.o(i.__kernel_cos)
    __kernel_poly                            0x08003d05   Thumb Code   170  poly.o(i.__kernel_poly)
    __kernel_sin                             0x08003db1   Thumb Code   224  sin_i.o(i.__kernel_sin)
    __mathlib_dbl_infnan                     0x08003e9d   Thumb Code     6  dunder.o(i.__mathlib_dbl_infnan)
    __mathlib_dbl_infnan2                    0x08003ea3   Thumb Code     4  dunder.o(i.__mathlib_dbl_infnan2)
    __mathlib_dbl_invalid                    0x08003ea7   Thumb Code    12  dunder.o(i.__mathlib_dbl_invalid)
    __mathlib_dbl_underflow                  0x08003eb5   Thumb Code    10  dunder.o(i.__mathlib_dbl_underflow)
    __scatterload_copy                       0x08003ec5   Thumb Code    14  handlers.o(i.__scatterload_copy)
    __scatterload_null                       0x08003ed3   Thumb Code     2  handlers.o(i.__scatterload_null)
    __scatterload_zeroinit                   0x08003ed5   Thumb Code    14  handlers.o(i.__scatterload_zeroinit)
    __set_errno                              0x08003ee5   Thumb Code     6  errno.o(i.__set_errno)
    atan                                     0x08003ef1   Thumb Code   474  atan.o(i.atan)
    atan2                                    0x08004111   Thumb Code   346  atan2.o(i.atan2)
    main                                     0x08004291   Thumb Code  1368  main.o(i.main)
    sin                                      0x080047ed   Thumb Code   150  sin.o(i.sin)
    __mathlib_zero                           0x08004958   Data           8  qnan.o(.constdata)
    Region$$Table$$Base                      0x08004a50   Number         0  anon$$obj.o(Region$$Table)
    Region$$Table$$Limit                     0x08004a70   Number         0  anon$$obj.o(Region$$Table)
    SystemCoreClock                          0x20000000   Data           4  system_stm32f10x.o(.data)
    AHBPrescTable                            0x20000004   Data          16  system_stm32f10x.o(.data)
    Mpu6050_ID                               0x20000036   Data           1  mpu6050.o(.data)
    Mpu6050_Accel_X                          0x20000038   Data           4  mpu6050.o(.data)
    Mpu6050_Accel_Y                          0x2000003c   Data           4  mpu6050.o(.data)
    Mpu6050_Accel_Z                          0x20000040   Data           4  mpu6050.o(.data)
    Mpu6050_Temp                             0x20000044   Data           4  mpu6050.o(.data)
    Mpu6050_Gyro_X                           0x20000048   Data           4  mpu6050.o(.data)
    Mpu6050_Gyro_Y                           0x2000004c   Data           4  mpu6050.o(.data)
    Mpu6050_Gyro_Z                           0x20000050   Data           4  mpu6050.o(.data)
    Mpu6050_Pitch                            0x20000054   Data           4  mpu6050.o(.data)
    Mpu6050_Roll                             0x20000058   Data           4  mpu6050.o(.data)
    cntUsart1RxBuff                          0x2000008a   Data           2  usart1.o(.data)
    BoardMpu_ID                              0x2000014e   Data           1  boardmpu.o(.data)
    BoardMpu_Accel_X                         0x20000150   Data           4  boardmpu.o(.data)
    BoardMpu_Accel_Y                         0x20000154   Data           4  boardmpu.o(.data)
    BoardMpu_Accel_Z                         0x20000158   Data           4  boardmpu.o(.data)
    BoardMpu_Temp                            0x2000015c   Data           4  boardmpu.o(.data)
    BoardMpu_Gyro_X                          0x20000160   Data           4  boardmpu.o(.data)
    BoardMpu_Gyro_Y                          0x20000164   Data           4  boardmpu.o(.data)
    BoardMpu_Gyro_Z                          0x20000168   Data           4  boardmpu.o(.data)
    BoardMpu_Pitch                           0x2000016c   Data           4  boardmpu.o(.data)
    BoardMpu_Roll                            0x20000170   Data           4  boardmpu.o(.data)
    Lipo_Voltage                             0x20000180   Data           4  lipo.o(.data)
    Joystick_X                               0x20000198   Data           2  joystick.o(.data)
    Joystick_Y                               0x2000019a   Data           2  joystick.o(.data)
    Joystick_Z                               0x2000019c   Data           2  joystick.o(.data)
    usart1RxBuff                             0x200011a4   Data         256  usart1.o(.bss)
    __initial_sp                             0x200017c0   Data           0  startup_stm32f10x_hd.o(STACK)



==============================================================================

Memory Map of the image

  Image Entry point : 0x08000145

  Load Region LR_1 (Base: 0x08000000, Size: 0x00004c14, Max: 0xffffffff, ABSOLUTE, COMPRESSED[0x00004a90])

    Execution Region ER_RO (Base: 0x08000000, Size: 0x00004a70, Max: 0xffffffff, ABSOLUTE)

    Base Addr    Size         Type   Attr      Idx    E Section Name        Object

    0x08000000   0x00000130   Data   RO            3    RESET               startup_stm32f10x_hd.o
    0x08000130   0x00000000   Code   RO         2462  * .ARM.Collect$$$$00000000  mc_w.l(entry.o)
    0x08000130   0x00000004   Code   RO         2550    .ARM.Collect$$$$00000001  mc_w.l(entry2.o)
    0x08000134   0x00000004   Code   RO         2553    .ARM.Collect$$$$00000004  mc_w.l(entry5.o)
    0x08000138   0x00000000   Code   RO         2555    .ARM.Collect$$$$00000008  mc_w.l(entry7b.o)
    0x08000138   0x00000000   Code   RO         2557    .ARM.Collect$$$$0000000A  mc_w.l(entry8b.o)
    0x08000138   0x00000008   Code   RO         2558    .ARM.Collect$$$$0000000B  mc_w.l(entry9a.o)
    0x08000140   0x00000000   Code   RO         2560    .ARM.Collect$$$$0000000D  mc_w.l(entry10a.o)
    0x08000140   0x00000000   Code   RO         2562    .ARM.Collect$$$$0000000F  mc_w.l(entry11a.o)
    0x08000140   0x00000004   Code   RO         2551    .ARM.Collect$$$$00002712  mc_w.l(entry2.o)
    0x08000144   0x00000024   Code   RO            4  * .text               startup_stm32f10x_hd.o
    0x08000168   0x000000b0   Code   RO         2465    .text               mf_w.l(fadd.o)
    0x08000218   0x00000064   Code   RO         2467    .text               mf_w.l(fmul.o)
    0x0800027c   0x0000007c   Code   RO         2469    .text               mf_w.l(fdiv.o)
    0x080002f8   0x0000014e   Code   RO         2471    .text               mf_w.l(dadd.o)
    0x08000446   0x000000e4   Code   RO         2473    .text               mf_w.l(dmul.o)
    0x0800052a   0x000000de   Code   RO         2475    .text               mf_w.l(ddiv.o)
    0x08000608   0x0000000a   Code   RO         2477    .text               mf_w.l(ffltui.o)
    0x08000612   0x00000022   Code   RO         2479    .text               mf_w.l(dflti.o)
    0x08000634   0x0000001a   Code   RO         2481    .text               mf_w.l(dfltui.o)
    0x0800064e   0x00000028   Code   RO         2483    .text               mf_w.l(ffixui.o)
    0x08000676   0x00000032   Code   RO         2485    .text               mf_w.l(dfixui.o)
    0x080006a8   0x00000026   Code   RO         2487    .text               mf_w.l(f2d.o)
    0x080006ce   0x00000002   PAD
    0x080006d0   0x00000030   Code   RO         2489    .text               mf_w.l(cdcmple.o)
    0x08000700   0x00000030   Code   RO         2491    .text               mf_w.l(cdrcmple.o)
    0x08000730   0x00000038   Code   RO         2493    .text               mf_w.l(d2f.o)
    0x08000768   0x00000014   Code   RO         2495    .text               mf_w.l(cfcmple.o)
    0x0800077c   0x00000014   Code   RO         2497    .text               mf_w.l(cfrcmple.o)
    0x08000790   0x0000001e   Code   RO         2564    .text               mc_w.l(llshl.o)
    0x080007ae   0x00000020   Code   RO         2566    .text               mc_w.l(llushr.o)
    0x080007ce   0x00000024   Code   RO         2568    .text               mc_w.l(llsshr.o)
    0x080007f2   0x00000000   Code   RO         2577    .text               mc_w.l(iusefp.o)
    0x080007f2   0x0000006e   Code   RO         2578    .text               mf_w.l(fepilogue.o)
    0x08000860   0x000000ba   Code   RO         2580    .text               mf_w.l(depilogue.o)
    0x0800091a   0x0000002e   Code   RO         2582    .text               mf_w.l(dscalb.o)
    0x08000948   0x00000024   Code   RO         2584    .text               mc_w.l(init.o)
    0x0800096c   0x0000003e   Code   RO         2588    .text               mf_w.l(dfixi.o)
    0x080009aa   0x00000056   Code   RO         2598    .text               mc_w.l(__dczerorl2.o)
    0x08000a00   0x00000018   Code   RO         2328    i.ADC1_2_IRQHandler  lipo.o
    0x08000a18   0x00000016   Code   RO          138    i.ADC_Cmd           stm32f10x_adc.o
    0x08000a2e   0x00000016   Code   RO          139    i.ADC_DMACmd        stm32f10x_adc.o
    0x08000a44   0x00000014   Code   RO          146    i.ADC_GetCalibrationStatus  stm32f10x_adc.o
    0x08000a58   0x00000008   Code   RO          147    i.ADC_GetConversionValue  stm32f10x_adc.o
    0x08000a60   0x00000014   Code   RO          152    i.ADC_GetResetCalibrationStatus  stm32f10x_adc.o
    0x08000a74   0x00000018   Code   RO          155    i.ADC_ITConfig      stm32f10x_adc.o
    0x08000a8c   0x00000050   Code   RO          156    i.ADC_Init          stm32f10x_adc.o
    0x08000adc   0x000000b8   Code   RO          160    i.ADC_RegularChannelConfig  stm32f10x_adc.o
    0x08000b94   0x0000000a   Code   RO          161    i.ADC_ResetCalibration  stm32f10x_adc.o
    0x08000b9e   0x00000016   Code   RO          163    i.ADC_SoftwareStartConvCmd  stm32f10x_adc.o
    0x08000bb4   0x0000000a   Code   RO          165    i.ADC_StartCalibration  stm32f10x_adc.o
    0x08000bbe   0x00000002   PAD
    0x08000bc0   0x00000168   Code   RO         2199    i.BoardMpu_CalPitchRoll  boardmpu.o
    0x08000d28   0x000000c0   Code   RO         2200    i.BoardMpu_GetAccelData  boardmpu.o
    0x08000de8   0x0000001c   Code   RO         2201    i.BoardMpu_GetDevID  boardmpu.o
    0x08000e04   0x000000c4   Code   RO         2202    i.BoardMpu_GetGyroData  boardmpu.o
    0x08000ec8   0x000000cc   Code   RO         2204    i.BoardMpu_Init     boardmpu.o
    0x08000f94   0x0000005a   Code   RO         2205    i.BoardMpu_SetDLPF  boardmpu.o
    0x08000fee   0x0000005e   Code   RO         2206    i.BoardMpu_SetSampleRate  boardmpu.o
    0x0800104c   0x00000004   Code   RO         1797    i.BusFault_Handler  stm32f10x_it.o
    0x08001050   0x00000034   Code   RO         2370    i.Buzzer_Init       buzzer.o
    0x08001084   0x00000018   Code   RO         1866    i.CalledBySystickHandler  systick.o
    0x0800109c   0x00000018   Code   RO          356    i.DMA_Cmd           stm32f10x_dma.o
    0x080010b4   0x0000014c   Code   RO          357    i.DMA_DeInit        stm32f10x_dma.o
    0x08001200   0x0000003c   Code   RO          362    i.DMA_Init          stm32f10x_dma.o
    0x0800123c   0x00000002   Code   RO         1798    i.DebugMon_Handler  stm32f10x_it.o
    0x0800123e   0x00000002   PAD
    0x08001240   0x00000024   Code   RO         1867    i.Delay_us          systick.o
    0x08001264   0x00000116   Code   RO          486    i.GPIO_Init         stm32f10x_gpio.o
    0x0800137a   0x00000012   Code   RO          490    i.GPIO_ReadInputDataBit  stm32f10x_gpio.o
    0x0800138c   0x00000004   Code   RO          493    i.GPIO_ResetBits    stm32f10x_gpio.o
    0x08001390   0x00000004   Code   RO          494    i.GPIO_SetBits      stm32f10x_gpio.o
    0x08001394   0x0000000a   Code   RO          497    i.GPIO_WriteBit     stm32f10x_gpio.o
    0x0800139e   0x00000004   Code   RO         1799    i.HardFault_Handler  stm32f10x_it.o
    0x080013a2   0x00000002   PAD
    0x080013a4   0x00000034   Code   RO         1907    i.I2C1_Init         i2c1.o
    0x080013d8   0x00000094   Code   RO         1908    i.I2C1_ReadData     i2c1.o
    0x0800146c   0x00000094   Code   RO         1909    i.I2C1_RecvByte     i2c1.o
    0x08001500   0x00000044   Code   RO         1910    i.I2C1_SendACK      i2c1.o
    0x08001544   0x0000005c   Code   RO         1911    i.I2C1_SendByte     i2c1.o
    0x080015a0   0x0000003c   Code   RO         1912    i.I2C1_Start        i2c1.o
    0x080015dc   0x0000003c   Code   RO         1913    i.I2C1_Stop         i2c1.o
    0x08001618   0x00000084   Code   RO         1914    i.I2C1_WaitACK      i2c1.o
    0x0800169c   0x0000006e   Code   RO         1915    i.I2C1_WriteData    i2c1.o
    0x0800170a   0x00000002   PAD
    0x0800170c   0x00000038   Code   RO         2266    i.I2C2_Init         i2c2.o
    0x08001744   0x00000094   Code   RO         2267    i.I2C2_ReadData     i2c2.o
    0x080017d8   0x000000a0   Code   RO         2268    i.I2C2_RecvByte     i2c2.o
    0x08001878   0x0000004c   Code   RO         2269    i.I2C2_SendACK      i2c2.o
    0x080018c4   0x00000064   Code   RO         2270    i.I2C2_SendByte     i2c2.o
    0x08001928   0x00000044   Code   RO         2271    i.I2C2_Start        i2c2.o
    0x0800196c   0x00000044   Code   RO         2272    i.I2C2_Stop         i2c2.o
    0x080019b0   0x00000094   Code   RO         2273    i.I2C2_WaitACK      i2c2.o
    0x08001a44   0x0000006e   Code   RO         2274    i.I2C2_WriteData    i2c2.o
    0x08001ab2   0x00000002   PAD
    0x08001ab4   0x00000100   Code   RO         2382    i.JoystickADC_Init  joystick.o
    0x08001bb4   0x00000040   Code   RO         2383    i.JoystickGPIO_Init  joystick.o
    0x08001bf4   0x0000005c   Code   RO         2384    i.JoystickPara_Init  joystick.o
    0x08001c50   0x00000098   Code   RO         2385    i.Joystick_CalXY    joystick.o
    0x08001ce8   0x000000b4   Code   RO         2386    i.Joystick_ConvertAngle  joystick.o
    0x08001d9c   0x00000010   Code   RO         2387    i.Joystick_Init     joystick.o
    0x08001dac   0x00000078   Code   RO         2388    i.Joystick_ObtainMode  joystick.o
    0x08001e24   0x00000038   Code   RO         1854    i.Led_Init          led.o
    0x08001e5c   0x000000b4   Code   RO         2329    i.LipoADC_Init      lipo.o
    0x08001f10   0x0000002c   Code   RO         2330    i.LipoGPIO_Init     lipo.o
    0x08001f3c   0x000000a4   Code   RO         2331    i.Lipo_CalVoltage   lipo.o
    0x08001fe0   0x0000000c   Code   RO         2332    i.Lipo_Init         lipo.o
    0x08001fec   0x00000134   Code   RO         2160    i.MedianFilter      pid.o
    0x08002120   0x00000004   Code   RO         1800    i.MemManage_Handler  stm32f10x_it.o
    0x08002124   0x000000f0   Code   RO         2032    i.Motor0_Run        motor.o
    0x08002214   0x00000040   Code   RO         2033    i.Motor0_SetPWM     motor.o
    0x08002254   0x00000028   Code   RO         2034    i.Motor0_Shutdown   motor.o
    0x0800227c   0x000000f0   Code   RO         2035    i.Motor1_Run        motor.o
    0x0800236c   0x00000044   Code   RO         2036    i.Motor1_SetPWM     motor.o
    0x080023b0   0x00000028   Code   RO         2037    i.Motor1_Shutdown   motor.o
    0x080023d8   0x000000f0   Code   RO         2038    i.Motor2_Run        motor.o
    0x080024c8   0x00000044   Code   RO         2039    i.Motor2_SetPWM     motor.o
    0x0800250c   0x00000028   Code   RO         2040    i.Motor2_Shutdown   motor.o
    0x08002534   0x00000190   Code   RO         2041    i.MotorPWM_Init     motor.o
    0x080026c4   0x00000010   Code   RO         2042    i.MotorPos_Init     motor.o
    0x080026d4   0x00000010   Code   RO         2043    i.Motor_Init        motor.o
    0x080026e4   0x00000174   Code   RO         1969    i.Mpu6050_CalPitchRoll  mpu6050.o
    0x08002858   0x000000c0   Code   RO         1970    i.Mpu6050_GetAccelData  mpu6050.o
    0x08002918   0x0000001c   Code   RO         1971    i.Mpu6050_GetDevID  mpu6050.o
    0x08002934   0x000000c4   Code   RO         1972    i.Mpu6050_GetGyroData  mpu6050.o
    0x080029f8   0x000000cc   Code   RO         1974    i.Mpu6050_Init      mpu6050.o
    0x08002ac4   0x0000005a   Code   RO         1975    i.Mpu6050_SetDLPF   mpu6050.o
    0x08002b1e   0x0000005e   Code   RO         1976    i.Mpu6050_SetSampleRate  mpu6050.o
    0x08002b7c   0x00000002   Code   RO         1801    i.NMI_Handler       stm32f10x_it.o
    0x08002b7e   0x00000002   PAD
    0x08002b80   0x00000070   Code   RO           92    i.NVIC_Init         misc.o
    0x08002bf0   0x00000014   Code   RO           93    i.NVIC_PriorityGroupConfig  misc.o
    0x08002c04   0x00000028   Code   RO         1868    i.NVIC_SetPriority  systick.o
    0x08002c2c   0x00000174   Code   RO         2161    i.PID_Motor0        pid.o
    0x08002da0   0x00000174   Code   RO         2162    i.PID_Motor1        pid.o
    0x08002f14   0x00000168   Code   RO         2163    i.PID_Motor2        pid.o
    0x0800307c   0x00000002   Code   RO         1802    i.PendSV_Handler    stm32f10x_it.o
    0x0800307e   0x00000002   PAD
    0x08003080   0x00000018   Code   RO          801    i.RCC_ADCCLKConfig  stm32f10x_rcc.o
    0x08003098   0x00000020   Code   RO          802    i.RCC_AHBPeriphClockCmd  stm32f10x_rcc.o
    0x080030b8   0x00000020   Code   RO          803    i.RCC_APB1PeriphClockCmd  stm32f10x_rcc.o
    0x080030d8   0x00000020   Code   RO          805    i.RCC_APB2PeriphClockCmd  stm32f10x_rcc.o
    0x080030f8   0x00000002   Code   RO         1803    i.SVC_Handler       stm32f10x_it.o
    0x080030fa   0x00000008   Code   RO           24    i.SetSysClock       system_stm32f10x.o
    0x08003102   0x00000002   PAD
    0x08003104   0x000000e0   Code   RO           25    i.SetSysClockTo72   system_stm32f10x.o
    0x080031e4   0x00000144   Code   RO         2044    i.SineArray_Init    motor.o
    0x08003328   0x00000008   Code   RO         1869    i.SysTick_Handler   systick.o
    0x08003330   0x00000060   Code   RO           27    i.SystemInit        system_stm32f10x.o
    0x08003390   0x00000064   Code   RO         1870    i.Systick_Init      systick.o
    0x080033f4   0x00000018   Code   RO         1005    i.TIM_ARRPreloadConfig  stm32f10x_tim.o
    0x0800340c   0x0000001e   Code   RO         1009    i.TIM_CCxCmd        stm32f10x_tim.o
    0x0800342a   0x00000018   Code   RO         1017    i.TIM_Cmd           stm32f10x_tim.o
    0x08003442   0x00000002   PAD
    0x08003444   0x00000098   Code   RO         1046    i.TIM_OC1Init       stm32f10x_tim.o
    0x080034dc   0x00000012   Code   RO         1049    i.TIM_OC1PreloadConfig  stm32f10x_tim.o
    0x080034ee   0x00000002   PAD
    0x080034f0   0x000000a4   Code   RO         1051    i.TIM_OC2Init       stm32f10x_tim.o
    0x08003594   0x0000001a   Code   RO         1054    i.TIM_OC2PreloadConfig  stm32f10x_tim.o
    0x080035ae   0x00000002   PAD
    0x080035b0   0x000000a0   Code   RO         1056    i.TIM_OC3Init       stm32f10x_tim.o
    0x08003650   0x00000012   Code   RO         1059    i.TIM_OC3PreloadConfig  stm32f10x_tim.o
    0x08003662   0x00000002   PAD
    0x08003664   0x0000007c   Code   RO         1061    i.TIM_OC4Init       stm32f10x_tim.o
    0x080036e0   0x0000001a   Code   RO         1063    i.TIM_OC4PreloadConfig  stm32f10x_tim.o
    0x080036fa   0x00000004   Code   RO         1078    i.TIM_SetCompare1   stm32f10x_tim.o
    0x080036fe   0x00000004   Code   RO         1079    i.TIM_SetCompare2   stm32f10x_tim.o
    0x08003702   0x00000004   Code   RO         1080    i.TIM_SetCompare3   stm32f10x_tim.o
    0x08003706   0x00000006   Code   RO         1081    i.TIM_SetCompare4   stm32f10x_tim.o
    0x0800370c   0x000000a4   Code   RO         1088    i.TIM_TimeBaseInit  stm32f10x_tim.o
    0x080037b0   0x00000044   Code   RO         2123    i.USART1_IRQHandler  usart1.o
    0x080037f4   0x00000054   Code   RO         1557    i.USART_GetITStatus  stm32f10x_usart.o
    0x08003848   0x0000000a   Code   RO         1567    i.USART_ReceiveData  stm32f10x_usart.o
    0x08003852   0x00000004   Code   RO         1804    i.UsageFault_Handler  stm32f10x_it.o
    0x08003856   0x00000028   Code   RO         2526    i.__ARM_fpclassify  m_ws.l(fpclassify.o)
    0x0800387e   0x00000002   PAD
    0x08003880   0x00000388   Code   RO         2531    i.__ieee754_rem_pio2  m_ws.l(rred.o)
    0x08003c08   0x000000fc   Code   RO         2509    i.__kernel_cos      m_ws.l(cos_i.o)
    0x08003d04   0x000000aa   Code   RO         2528    i.__kernel_poly     m_ws.l(poly.o)
    0x08003dae   0x00000002   PAD
    0x08003db0   0x000000ec   Code   RO         2536    i.__kernel_sin      m_ws.l(sin_i.o)
    0x08003e9c   0x00000006   Code   RO         2513    i.__mathlib_dbl_infnan  m_ws.l(dunder.o)
    0x08003ea2   0x00000004   Code   RO         2514    i.__mathlib_dbl_infnan2  m_ws.l(dunder.o)
    0x08003ea6   0x0000000c   Code   RO         2515    i.__mathlib_dbl_invalid  m_ws.l(dunder.o)
    0x08003eb2   0x00000002   PAD
    0x08003eb4   0x00000010   Code   RO         2518    i.__mathlib_dbl_underflow  m_ws.l(dunder.o)
    0x08003ec4   0x0000000e   Code   RO         2592    i.__scatterload_copy  mc_w.l(handlers.o)
    0x08003ed2   0x00000002   Code   RO         2593    i.__scatterload_null  mc_w.l(handlers.o)
    0x08003ed4   0x0000000e   Code   RO         2594    i.__scatterload_zeroinit  mc_w.l(handlers.o)
    0x08003ee2   0x00000002   PAD
    0x08003ee4   0x0000000c   Code   RO         2572    i.__set_errno       mc_w.l(errno.o)
    0x08003ef0   0x00000220   Code   RO         2500    i.atan              m_ws.l(atan.o)
    0x08004110   0x00000180   Code   RO         2437    i.atan2             m_ws.l(atan2.o)
    0x08004290   0x0000055c   Code   RO         1729    i.main              main.o
    0x080047ec   0x000000a0   Code   RO         2455    i.sin               m_ws.l(sin.o)
    0x0800488c   0x00000002   Data   RO         2046    .constdata          motor.o
    0x0800488e   0x00000002   PAD
    0x08004890   0x00000098   Data   RO         2501    .constdata          m_ws.l(atan.o)
    0x08004928   0x00000030   Data   RO         2510    .constdata          m_ws.l(cos_i.o)
    0x08004958   0x00000008   Data   RO         2530    .constdata          m_ws.l(qnan.o)
    0x08004960   0x000000c8   Data   RO         2533    .constdata          m_ws.l(rred.o)
    0x08004a28   0x00000028   Data   RO         2537    .constdata          m_ws.l(sin_i.o)
    0x08004a50   0x00000020   Data   RO         2590    Region$$Table       anon$$obj.o


    Execution Region ER_RW (Base: 0x20000000, Size: 0x000001a4, Max: 0xffffffff, ABSOLUTE, COMPRESSED[0x00000020])

    Base Addr    Size         Type   Attr      Idx    E Section Name        Object

    0x20000000   0x00000014   Data   RW           28    .data               system_stm32f10x.o
    0x20000014   0x00000004   Data   RW         1871    .data               systick.o
    0x20000018   0x00000008   Data   RW         1916    .data               i2c1.o
    0x20000020   0x0000003c   Data   RW         1977    .data               mpu6050.o
    0x2000005c   0x0000002e   Data   RW         2047    .data               motor.o
    0x2000008a   0x00000002   Data   RW         2128    .data               usart1.o
    0x2000008c   0x000000a8   Data   RW         2166    .data               pid.o
    0x20000134   0x00000040   Data   RW         2207    .data               boardmpu.o
    0x20000174   0x00000008   Data   RW         2275    .data               i2c2.o
    0x2000017c   0x00000008   Data   RW         2333    .data               lipo.o
    0x20000184   0x0000001b   Data   RW         2389    .data               joystick.o
    0x2000019f   0x00000001   PAD
    0x200001a0   0x00000004   Data   RW         2573    .data               mc_w.l(errno.o)


    Execution Region ER_ZI (Base: 0x200001a4, Size: 0x0000161c, Max: 0xffffffff, ABSOLUTE)

    Base Addr    Size         Type   Attr      Idx    E Section Name        Object

    0x200001a4   0x00001000   Zero   RW         2045    .bss                motor.o
    0x200011a4   0x00000100   Zero   RW         2127    .bss                usart1.o
    0x200012a4   0x0000011c   Zero   RW         2165    .bss                pid.o
    0x200013c0   0x00000400   Zero   RW            1    STACK               startup_stm32f10x_hd.o


==============================================================================

Image component sizes


      Code (inc. data)   RO Data    RW Data    ZI Data      Debug   Object Name

      1164        100          0         64          0       7021   boardmpu.o
        52          6          0          0          0        506   buzzer.o
         0          0          0          0          0       4536   core_cm3.o
       870         50          0          8          0       5876   i2c1.o
       934         50          0          8          0       5864   i2c2.o
       880        102          0         27          0       5425   joystick.o
        56          6          0          0          0        491   led.o
       424         40          0          8          0       3300   lipo.o
      1372        138          0          0          0       3243   main.o
       132         22          0          0          0       1575   misc.o
      1796        194          2         46       4096       8275   motor.o
      1176        104          0         60          0       6522   mpu6050.o
      1412        216          0        168        284       3750   pid.o
        36          8        304          0       1024        872   startup_stm32f10x_hd.o
       422         10          0          0          0       8693   stm32f10x_adc.o
       416          8          0          0          0       3478   stm32f10x_dma.o
       314          0          0          0          0       4300   stm32f10x_gpio.o
        24          0          0          0          0       3548   stm32f10x_it.o
       120         24          0          0          0       2297   stm32f10x_rcc.o
       948         92          0          0          0      10485   stm32f10x_tim.o
        94          0          0          0          0       2752   stm32f10x_usart.o
       328         28          0         20          0     260997   system_stm32f10x.o
       208         28          0          4          0      17872   systick.o
        68         14          0          2        256       1099   usart1.o

    ----------------------------------------------------------------------
     13270       1240        340        416       5660     372777   Object Totals
         0          0         32          0          0          0   (incl. Generated)
        24          0          2          1          0          0   (incl. Padding)

    ----------------------------------------------------------------------

      Code (inc. data)   RO Data    RW Data    ZI Data      Debug   Library Member Name

       544         70        152          0          0        124   atan.o
       384         38          0          0          0        144   atan2.o
       252         22         48          0          0        124   cos_i.o
        38          6          0          0          0        272   dunder.o
        40          0          0          0          0         68   fpclassify.o
       170          0          0          0          0         96   poly.o
         0          0          8          0          0          0   qnan.o
       904         76        200          0          0        140   rred.o
       160         10          0          0          0        108   sin.o
       236         12         40          0          0        128   sin_i.o
        86          0          0          0          0          0   __dczerorl2.o
         0          0          0          0          0          0   entry.o
         0          0          0          0          0          0   entry10a.o
         0          0          0          0          0          0   entry11a.o
         8          4          0          0          0          0   entry2.o
         4          0          0          0          0          0   entry5.o
         0          0          0          0          0          0   entry7b.o
         0          0          0          0          0          0   entry8b.o
         8          4          0          0          0          0   entry9a.o
        12          6          0          4          0         68   errno.o
        30          0          0          0          0          0   handlers.o
        36          8          0          0          0         68   init.o
         0          0          0          0          0          0   iusefp.o
        30          0          0          0          0         68   llshl.o
        36          0          0          0          0         68   llsshr.o
        32          0          0          0          0         68   llushr.o
        48          0          0          0          0         68   cdcmple.o
        48          0          0          0          0         68   cdrcmple.o
        20          0          0          0          0         68   cfcmple.o
        20          0          0          0          0         68   cfrcmple.o
        56          0          0          0          0         88   d2f.o
       334          0          0          0          0        148   dadd.o
       222          0          0          0          0        100   ddiv.o
       186          0          0          0          0        176   depilogue.o
        62          0          0          0          0         80   dfixi.o
        50          0          0          0          0         76   dfixui.o
        34          0          0          0          0         76   dflti.o
        26          0          0          0          0         76   dfltui.o
       228          0          0          0          0         96   dmul.o
        46          0          0          0          0         80   dscalb.o
        38          0          0          0          0         68   f2d.o
       176          0          0          0          0        140   fadd.o
       124          0          0          0          0         88   fdiv.o
       110          0          0          0          0        168   fepilogue.o
        40          0          0          0          0         68   ffixui.o
        10          0          0          0          0         68   ffltui.o
       100          0          0          0          0         76   fmul.o

    ----------------------------------------------------------------------
      4998        256        448          4          0       3488   Library Totals
        10          0          0          0          0          0   (incl. Padding)

    ----------------------------------------------------------------------

      Code (inc. data)   RO Data    RW Data    ZI Data      Debug   Library Name

      2728        234        448          0          0       1204   m_ws.l
       282         22          0          4          0        340   mc_w.l
      1978          0          0          0          0       1944   mf_w.l

    ----------------------------------------------------------------------
      4998        256        448          4          0       3488   Library Totals

    ----------------------------------------------------------------------

==============================================================================


      Code (inc. data)   RO Data    RW Data    ZI Data      Debug   

     18268       1496        788        420       5660     368385   Grand Totals
     18268       1496        788         32       5660     368385   ELF Image Totals (compressed)
     18268       1496        788         32          0          0   ROM Totals

==============================================================================

    Total RO  Size (Code + RO Data)                19056 (  18.61kB)
    Total RW  Size (RW Data + ZI Data)              6080 (   5.94kB)
    Total ROM Size (Code + RO Data + RW Data)      19088 (  18.64kB)

==============================================================================

