:020000040800F2
:1000000038040020450100084D050008550300088C
:100010008D0300088D010008251200080000000073
:10002000000000000000000000000000350700088C
:10003000A901000800000000FD05000821080008D3
:100040005F0100085F0100085F0100085F01000810
:100050005F0100085F0100085F0100085F01000800
:100060005F0100085F0100085F0100085F010008F0
:100070005F0100085F0100085F0100085F010008E0
:100080005F0100085F0100085F0100085F010008D0
:100090005F0100085F0100085F0100085F010008C0
:1000A0005F0100085F0100085F0100085F010008B0
:1000B0005F0100085F0100085F0100085F010008A0
:1000C0005F0100085F0100085F0100085F01000890
:1000D0005F0100085F0100085F0100085F01000880
:1000E0005F0100085F0100085F0100085F01000870
:1000F0005F0100085F0100085F0100085F01000860
:100100005F0100085F0100085F0100085F0100084F
:100110005F0100085F0100085F0100085F0100083F
:100120005F0100085F0100085F0100085F0100082F
:10013000DFF80CD000F018F8004800479D120008C6
:10014000380400200648804706480047FEE7FEE7DF
:10015000FEE7FEE7FEE7FEE7FEE7FEE7FEE7FEE777
:100160002908000831010008064C074D06E0E06848
:1001700040F0010394E8070098471034AC42F6D3EE
:10018000FFF7DAFFBC120008DC12000800BFFEE730
:100190000448006820B103480068401E0149086017
:1001A000704700002800002070472DE9F04102460A
:1001B00000250026002000230024002791F803C01A
:1001C0000CF00F0591F803C00CF0100CBCF1000FFF
:1001D00003D091F802C04CEA050591F800C0BCF1CB
:1001E000000F31D0146800202BE04FF0010C0CFA06
:1001F00000F3B1F800C00CEA03069E4220D1830050
:100200004FF00F0C0CFA03F7BC4305FA03FC4CEA61
:10021000040491F803C0BCF1280F06D14FF0010C83
:100220000CFA00FCC2F814C00AE091F803C0BCF15B
:10023000480F05D14FF0010C0CFA00FCC2F810C0B9
:10024000401C0828D1D31460B1F800C0BCF1FF0FE6
:1002500034DD546800202EE000F1080C4FF0010856
:1002600008FA0CF3B1F800C00CEA03069E4221D153
:1002700083004FF00F0C0CFA03F7BC4305FA03FCA4
:100280004CEA040491F803C0BCF1280F05D100F139
:10029000080C08FA0CF8C2F8148091F803C0BCF1FD
:1002A000480F07D100F1080C4FF0010808FA0CF8CC
:1002B000C2F81080401C0828CED35460BDE8F081FD
:1002C000F0B50A46002300240021002500F0004676
:1002D000B6F1004F02D11D4EF16901E01B4E71686D
:1002E000C0F3034583B200F44016B6F5401F08D1B1
:1002F00021F07061154E766826F07066134F7E60AF
:1003000012E000F48016B6F5801F06D1032606FA27
:1003100005F4A14341F0706106E0460D360103FA91
:1003200006F6B14341F0706122B1460D360103FA81
:1003300006F6314300F00046B6F1004F02D1034EFD
:10034000F16101E0014E7160F0BD0000000001406C
:100350000161704700BFFEE708B50121082000F0E9
:100360005FF92320ADF8000010208DF80300032072
:100370008DF8020069460448FFF717FF2321024861
:10038000FFF7E6FF08BD0000000C014000BFFEE7DC
:1003900010B500F0B9FA00F0D7FA00F001F810BD7E
:1003A00010B5002211460E4800F052FB0022114603
:1003B0000B4800F05CFB00220421094800F048FBD8
:1003C00000220421064800F052FB002208210448C4
:1003D00000F03EFB00220821014800F048FB10BD60
:1003E000002C01402DE9F04104460D46062742F25B
:1003F0000F706043642190FBF1F086B2FFF7D0FFED
:100400005048007806287DD2DFE800F003172B3F24
:10041000536731464C4800F058FD42F20F714A488C
:1004200000F057FD01220021474800F011FB042293
:100430000821454800F01BFB65E03146424800F0CA
:1004400046FD42F20F71404800F043FD01220421B5
:100450003D4800F0FDFA042208213B4800F007FB6C
:1004600051E03146384800F032FD42F20F71364813
:1004700000F02BFD01220421334800F0E9FA0422A8
:100480000021314800F0F3FA3DE031462E4800F0FB
:1004900020FD42F20F712C4800F017FD01220821C7
:1004A000294800F0D5FA04220021274800F0DFFA9D
:1004B00029E03146244800F00CFD42F20F71224839
:1004C00000F005FD012208211F4800F0C1FA0422B6
:1004D00011461D4800F0CBFA15E031461A4800F0ED
:1004E000F4FC42F20F71184800F0F1FC01220021E7
:1004F000154800F0ADFA04221146134800F0B7FA8F
:1005000001E0FFE700BF00BF55B10E480078401C76
:10051000062190FBF1F201FB12000A4908700FE07E
:100520000848007810B90620064908700548007888
:10053000401E062190FBF1F201FB120001490870F8
:10054000BDE8F0812C000020002C01407047000025
:1005500070B5002100230F22C47804B3154C246821
:1005600004F4E064C4F5E064210AC1F10403CA4064
:10057000447804FA03F184781440214309010E4CB5
:100580000678A155047804F01F050124AC400578D5
:100590006D11AD0005F1E025C5F8004109E00478D2
:1005A00004F01F050124AC40044D0678761145F88F
:1005B000264070BD0CED00E000E400E080E100E0CA
:1005C00002490143024A1160704700000000FA0529
:1005D0000CED00E010B5002807DA0A07140E054AF2
:1005E00000F00F031B1FD45403E00A07130E024A46
:1005F000135410BD18ED00E000E400E07047000067
:1006000029B1064A12690243044B1A6104E0034A05
:1006100012698243014B1A617047000000100240CA
:1006200029B1064A92690243044B9A6104E0034AE5
:1006300092698243014B9A617047000000100240AA
:1006400029B1064AD2680243044BDA6004E0034A47
:10065000D2688243014BDA6070470000001002400C
:1006600030B500210022002400232D4D6D6805F0D7
:100670000C0121B1042905D0082923D105E0294D19
:10068000056022E0274D05601FE0254D6D6805F4EB
:100690007012234D6D6805F48034022505EB9242FB
:1006A0001CB9214D554305600BE01D4D6D6805F4E7
:1006B00000351DB11C4D5543056002E0194D5543F1
:1006C000056002E0174D056000BF00BF144D6D6866
:1006D00005F0F0010909154D6B5C0568DD404560CA
:1006E0000F4D6D6805F4E061090A104D6B5C4568BB
:1006F000DD4085600A4D6D6805F46051C90A0B4DF7
:100700006B5C4568DD40C560054D6D6805F4404192
:10071000890B074D6B5CC568B5FBF3F5056130BD12
:100720000010024000127A0000093D001400002071
:1007300024000020704710B500F002F810BD000042
:100740000CB50020019000903348006840F48030E0
:100750003149086000BF3048006800F40030009064
:100760000198401C0190009818B90198B0F5A06F4D
:10077000F1D12948006800F4003010B10120009048
:1007800001E0002000900098012843D12348006830
:1007900040F01000214908600846006820F003007E
:1007A00008600846006840F0020008601A48406887
:1007B000194948600846406848600846406840F467
:1007C000806048600846406820F47C104860084615
:1007D000406840F4E81048600846006840F08070C7
:1007E000086000BF0C48006800F000700028F9D0D5
:1007F0000948406820F003000749486008464068FF
:1008000040F00200486000BF0348406800F00C0060
:100810000828F9D10CBD0000001002400020024061
:1008200010B5FFF7B5FC10BD10B51348006840F0D7
:1008300001001149086008464068104908400E4907
:100840004860084600680E4908400B4908600846A1
:10085000006820F4802008600846406820F4FE000C
:1008600048604FF41F008860FFF765FF4FF000609D
:100870000449086010BD0000001002400000FFF8AD
:10088000FFFFF6FE08ED00E010B5174800681749B5
:10089000B0FBF1F4B4F1807F01D3012011E024F02A
:1008A0007F40401E4FF0E02148610F214FF0FF30A4
:1008B000FFF790FE00204FF0E021886107200861DB
:1008C000002020B10AA000F0AFFC00BFFEE74FF00F
:1008D000E020006920F001004FF0E02108610021D4
:1008E000481EFFF777FE10BD0000002040420F00B9
:1008F0004572726F723A5379737469636B5F496EB4
:10090000697428290D0A000008B501214020FFF76D
:1009100087FE0121C802FFF783FE01210848FFF787
:10092000CFFC4FF43F40ADF8000018208DF80300D5
:1009300003208DF8020069460248FFF736FC08BD27
:10094000C00016000018014000B58BB0314800F01F
:10095000B9F84720ADF8200042F20F70ADF824003E
:100960000020ADF82200ADF826008DF8280008A977
:10097000284800F0B1FA6020ADF810000120ADF871
:1009800012000420ADF814000020ADF81800ADF8F6
:100990001A00ADF81C00ADF81E00ADF8160004A951
:1009A0001C4800F083F904A91A4800F0D5F904A9FD
:1009B000184800F031FA0121164800F02DF80821FE
:1009C000144800F0BFF90821124800F017FA082176
:1009D000104800F071FA0020ADF80000ADF80200F8
:1009E000ADF804000820ADF806000020ADF80800BE
:1009F0004FF48040ADF80C006946064800F018F846
:100A00000121044800F042F80121024800F04AF8B0
:100A10000BB000BD002C014021B1028842F08002E1
:100A2000028004E002884FF67F731A40028070470C
:100A30000A884B881A438B881A43CB881A430B8940
:100A40001A434B891A438B891A43A0F844207047F4
:100A500030B5002301248C40A3B2048C9C43048451
:100A6000048C02FA01F5ADB22C43048430BD30B5DC
:100A7000002304248C40A3B2048C9C430484048C83
:100A800002FA01F5ADB22C43048430BD21B10288D5
:100A900042F00102028004E002884FF6FE731A4021
:100AA0000280704731B1B0F8442042F40042A0F80F
:100AB000442005E0B0F84420C2F30E02A0F8442020
:100AC0007047000010B504466848844208D10121EF
:100AD000C014FFF7B5FD0021E014FFF7B1FDC4E03D
:100AE000B4F1804F08D101210846FFF789FD0021AC
:100AF0000120FFF785FDB8E05D48844208D101215F
:100B00000220FFF77DFD00210220FFF779FDACE018
:100B10005848844208D101210420FFF771FD0021CB
:100B20000420FFF76DFDA0E05348844208D1012165
:100B30000820FFF765FD00210820FFF761FD94E024
:100B40004E48844208D101211020FFF759FD0021B1
:100B50001020FFF755FD88E04948844208D1012163
:100B60002020FFF74DFD00212020FFF749FD7CE00C
:100B70004448844208D101214014FFF761FD00215F
:100B80006014FFF75DFD70E03F48844209D1012108
:100B9000C804FFF755FD00214FF40020FFF750FD7A
:100BA00063E03A48844209D101210805FFF748FD76
:100BB00000214FF48010FFF743FD56E03448844293
:100BC00009D101214805FFF73BFD00214FF400103A
:100BD000FFF736FD49E02F48844208D1012140202B
:100BE000FFF70EFD00214020FFF70AFD3DE02A48F7
:100BF000844208D101218020FFF702FD00218020DE
:100C0000FFF7FEFC31E02548844208D10121801520
:100C1000FFF7F6FC0021A015FFF7F2FC25E02048C5
:100C2000844209D101210804FFF70AFD00214FF495
:100C30008030FFF705FD18E01A48844209D10121F0
:100C40004804FFF7FDFC00214FF40030FFF7F8FCEB
:100C50000BE01548844208D101218804FFF7F0FC1D
:100C600000214FF48020FFF7EBFC10BD002C014069
:100C70000004004000080040000C0040001000404C
:100C80000014004000340140004C0140005001407D
:100C90000054014000180040001C004000200040AB
:100CA00000400140004401400048014070B500246C
:100CB00000220023058C4FF6FE7635400584028C19
:100CC0008388048B4FF68F752C40B51E2C400D8801
:100CD0002C43751E2A400D892A434D882A43144D02
:100CE000A8420BD0134DA84208D0134DA84205D0FE
:100CF000124DA84202D0124DA84213D14FF6F775FB
:100D00002A404D892A434FF6FB752A408D882A4395
:100D10004FF6FF652B404FF6FF552B408D892B4337
:100D2000CD892B4383800483CD888586028470BD62
:100D3000002C0140003401400040014000440140CB
:100D4000004801400A460021018B4FF6F773194015
:100D5000114301837047000070B500240022002376
:100D6000058C4FF6EF7635400584028C8388048B22
:100D700048F6FF752C404FF6FF452C400D884FF686
:100D8000FF7606EA05252C434FF6DF752A400D89CC
:100D900006EA05152A434D8806EA05152A43154D2E
:100DA000A84202D0144DA8421DD14FF67F752A40AB
:100DB0004D894FF6FF7606EA05152A434FF6BF75B3
:100DC0002A408D8806EA05152A434FF6FF352B4049
:100DD0004FF2FF752B408D8906EA85052B43CD899F
:100DE00006EA85052B4383800483CD88058702842A
:100DF00070BD0000002C0140003401400A46002173
:100E0000018B4FF2FF7319404FF6FF7303EA022381
:100E1000194301837047000070B5002400220023AD
:100E2000058C4FF6FF6635400584028C8388848BE1
:100E30004FF68F752C404FF6FC752C400D882C43D7
:100E40004FF6FF552A400D894FF6FF7606EA052535
:100E50002A434D8806EA05252A43154DA84202D0AB
:100E6000144DA8421DD14FF2FF752A404D894FF60F
:100E7000FF7606EA05252A434FF6FF352A408D887E
:100E800006EA05252A434EF6FF752B404DF6FF7501
:100E90002B408D8906EA05152B43CD8906EA0515F9
:100EA0002B4383808483CD888587028470BD0000B6
:100EB000002C0140003401400A460021818B4FF68E
:100EC000F77319401143818370478186704701870A
:100ED0007047818770470000002202881D4B9842AE
:100EE0000ED01D4B98420BD0B0F1804F08D01B4B59
:100EF000984205D01A4B984202D01A4B984204D11E
:100F00004FF68F731A404B881A43174B984207D0FD
:100F1000164B984204D04FF6FF431A40CB881A4331
:100F200002808B8883850B8803850A4B98420BD0FF
:100F3000094B984208D00E4B984205D00D4B984271
:100F400002D00D4B984201D10B7A03860123838294
:100F500070470000002C01400034014000040040B4
:100F600000080040000C0040001000400014004049
:100F700000400140004401400048014021B1828905
:100F800042F40052828104E082894DF6FF731A40D8
:100F90008281704710B504462048844209D101215E
:100FA0008803FFF74DFB00214FF48040FFF748FB1B
:100FB00032E01B48844209D101214804FFF720FB9D
:100FC00000214FF40030FFF71BFB25E01548844259
:100FD00009D101218804FFF713FB00214FF4802081
:100FE000FFF70EFB18E01048844209D10121C80424
:100FF000FFF706FB00214FF40020FFF701FB0BE099
:101000000A48844208D101210805FFF7F9FA0021B6
:101010004FF48010FFF7F4FA10BD000000380140D3
:101020000044004000480040004C00400050004098
:1010300002460020B1F5007F00D100BF13880B40AD
:101040000BB1012000E000207047F0B503460024FA
:1010500000260025002040F66A17B94200D100BFE3
:101060001846C1F3421401F01F06012707FA06F5DE
:10107000012C01D10C3004E0022C01D1103000E031
:1010800014301AB107682F43076002E00768AF43C6
:101090000760F0BD2DE9F04786B005460E460024F6
:1010A000A24600BFA1460027B08900B100BF2F466D
:1010B0002C8A4CF6FF700440F08804432C82AC89E3
:1010C0004EF6F3100440B088318908437189084313
:1010D0000443AC81AC8A4FF6FF400440B08904431E
:1010E000AC8201A8FFF7BCFA1F48874202D1DDF8A5
:1010F00010A001E0DDF80CA0A88900F4004040B188
:101100000AEBCA0000EB0A1031684900B0FBF1F8A5
:1011100007E00AEBCA0000EB0A1031688900B0FB57
:10112000F1F86420B8FBF0F004012009642101FB10
:101130001089A88900F4004040B1322000EBC900BA
:10114000B0FBF1F000F00700044308E0322000EBB0
:1011500009106421B0FBF1F000F00F0004432C8172
:1011600006B0BDE8F087000000380140C1F3080276
:101170008280704710B586B00446012144F2050014
:10118000FFF74EFA4FF40070ADF8140018208DF8F8
:10119000170003208DF8160005A92048FFF705F871
:1011A0004FF48060ADF8140004208DF8170005A9F5
:1011B0001A48FEF7FAFF1A48FFF7ECFE01940020E8
:1011C000ADF80800ADF80C00ADF80A00ADF810005D
:1011D0000C20ADF80E0001A91148FFF75BFF4FF49A
:1011E000E060FFF7EDF925208DF8000000208DF874
:1011F000010002208DF8020001208DF803006846EE
:10120000FFF7A6F9012240F225510548FFF71DFF1F
:1012100001210348FFF7B2FE06B010BD00080140EF
:101220000038014000BFFEE7014A024900F013B850
:10123000791200083000002002E008C8121F08C11F
:10124000002AFAD170477047002001E001C1121F47
:10125000002AFBD170472DE9F04116460F4604469F
:10126000002503E03946B047641C6D1C2078002837
:10127000F8D12846BDE8F08170B504460D46E1B2CC
:101280000548FFF773FF00BF80210348FFF7D0FE3A
:101290000028F9D0204670BD00380140FFF75CF807
:1012A000FFF7F2FA4FF4E130FFF764FFFFF770F851
:1012B00003E001215A20FFF795F8FAE7DC12000855
:1012C000000000203400000038120008101300084D
:1012D00034000020040400004812000800A24A0460
:1012E00000000000000000000102030406070809D6
:1012F00000000000010203040102030406070809BC
:1013000002040608000000000000000000000000C9
:0400000508000145A9
:00000001FF
