Component: ARM Compiler 5.05 update 2 (build 169) Tool: armlink [4d0f33]

==============================================================================

Section Cross References

    startup_stm32f10x_hd.o(RESET) refers to startup_stm32f10x_hd.o(STACK) for __initial_sp
    startup_stm32f10x_hd.o(RESET) refers to startup_stm32f10x_hd.o(.text) for Reset_Handler
    startup_stm32f10x_hd.o(RESET) refers to stm32f10x_it.o(i.NMI_Handler) for NMI_Handler
    startup_stm32f10x_hd.o(RESET) refers to stm32f10x_it.o(i.HardFault_Handler) for HardFault_Handler
    startup_stm32f10x_hd.o(RESET) refers to stm32f10x_it.o(i.MemManage_Handler) for MemManage_Handler
    startup_stm32f10x_hd.o(RESET) refers to stm32f10x_it.o(i.BusFault_Handler) for BusFault_Handler
    startup_stm32f10x_hd.o(RESET) refers to stm32f10x_it.o(i.UsageFault_Handler) for UsageFault_Handler
    startup_stm32f10x_hd.o(RESET) refers to stm32f10x_it.o(i.SVC_Handler) for SVC_Handler
    startup_stm32f10x_hd.o(RESET) refers to stm32f10x_it.o(i.DebugMon_Handler) for DebugMon_Handler
    startup_stm32f10x_hd.o(RESET) refers to stm32f10x_it.o(i.PendSV_Handler) for PendSV_Handler
    startup_stm32f10x_hd.o(RESET) refers to stm32f10x_it.o(i.SysTick_Handler) for SysTick_Handler
    startup_stm32f10x_hd.o(RESET) refers to stm32f10x_it.o(i.USART1_IRQHandler) for USART1_IRQHandler
    startup_stm32f10x_hd.o(.text) refers to system_stm32f10x.o(i.SystemInit) for SystemInit
    startup_stm32f10x_hd.o(.text) refers to entry.o(.ARM.Collect$$$$00000000) for __main
    system_stm32f10x.o(i.SetSysClock) refers to system_stm32f10x.o(i.SetSysClockTo72) for SetSysClockTo72
    system_stm32f10x.o(i.SystemCoreClockUpdate) refers to system_stm32f10x.o(.data) for SystemCoreClock
    system_stm32f10x.o(i.SystemInit) refers to system_stm32f10x.o(i.SetSysClock) for SetSysClock
    stm32f10x_adc.o(i.ADC_DeInit) refers to stm32f10x_rcc.o(i.RCC_APB2PeriphResetCmd) for RCC_APB2PeriphResetCmd
==============================================================================

Removing Unused input sections from the image.

    Removing startup_stm32f10x_hd.o(HEAP), (512 bytes).
    Removing core_cm3.o(.emb_text), (32 bytes).
    Removing system_stm32f10x.o(i.SystemCoreClockUpdate), (164 bytes).
    Removing misc.o(i.NVIC_SetVectorTable), (20 bytes).
    Removing misc.o(i.NVIC_SystemLPConfig), (32 bytes).
    Removing misc.o(i.SysTick_CLKSourceConfig), (40 bytes).
    Removing stm32f10x_adc.o(i.ADC_AnalogWatchdogCmd), (20 bytes).
    Removing stm32f10x_adc.o(i.ADC_AnalogWatchdogSingleChannelConfig), (16 bytes).
    Removing stm32f10x_adc.o(i.ADC_AnalogWatchdogThresholdsConfig), (6 bytes).
    Removing stm32f10x_adc.o(i.ADC_AutoInjectedConvCmd), (22 bytes).
    Removing stm32f10x_adc.o(i.ADC_ClearFlag), (6 bytes).
    Removing stm32f10x_adc.o(i.ADC_ClearITPendingBit), (10 bytes).
    Removing stm32f10x_adc.o(i.ADC_Cmd), (22 bytes).
    Removing stm32f10x_adc.o(i.ADC_DMACmd), (22 bytes).
    Removing stm32f10x_adc.o(i.ADC_DeInit), (92 bytes).
    Removing stm32f10x_adc.o(i.ADC_DiscModeChannelCountConfig), (24 bytes).
    Removing stm32f10x_adc.o(i.ADC_DiscModeCmd), (22 bytes).
    Removing stm32f10x_adc.o(i.ADC_ExternalTrigConvCmd), (22 bytes).
==============================================================================

Image Symbol Table

    Local Symbols

    Symbol Name                              Value     Ov Type        Size  Object(Section)

    ../clib/microlib/division.c              0x00000000   Number         0  uidiv.o ABSOLUTE
    ../clib/microlib/division.c              0x00000000   Number         0  uldiv.o ABSOLUTE
    ../clib/microlib/errno.c                 0x00000000   Number         0  errno.o ABSOLUTE
    ../clib/microlib/init/entry.s            0x00000000   Number         0  entry10b.o ABSOLUTE
    ../clib/microlib/init/entry.s            0x00000000   Number         0  entry10a.o ABSOLUTE
    ../clib/microlib/init/entry.s            0x00000000   Number         0  entry2.o ABSOLUTE
    ../clib/microlib/init/entry.s            0x00000000   Number         0  entry8b.o ABSOLUTE
    ../clib/microlib/init/entry.s            0x00000000   Number         0  entry8a.o ABSOLUTE
    ../clib/microlib/init/entry.s            0x00000000   Number         0  entry7b.o ABSOLUTE
    ../clib/microlib/init/entry.s            0x00000000   Number         0  entry7a.o ABSOLUTE
    ../clib/microlib/init/entry.s            0x00000000   Number         0  entry9b.o ABSOLUTE
    ../clib/microlib/init/entry.s            0x00000000   Number         0  entry9a.o ABSOLUTE
    ../clib/microlib/init/entry.s            0x00000000   Number         0  entry5.o ABSOLUTE
    ../clib/microlib/init/entry.s            0x00000000   Number         0  entry.o ABSOLUTE
    ../clib/microlib/init/entry.s            0x00000000   Number         0  entry11a.o ABSOLUTE
    ../clib/microlib/init/entry.s            0x00000000   Number         0  entry11b.o ABSOLUTE
    ../clib/microlib/longlong.c              0x00000000   Number         0  llsshr.o ABSOLUTE
    ../clib/microlib/longlong.c              0x00000000   Number         0  llshl.o ABSOLUTE
    ../clib/microlib/longlong.c              0x00000000   Number         0  llushr.o ABSOLUTE
    ../clib/microlib/printf/printf.c         0x00000000   Number         0  printf5.o ABSOLUTE
    ../clib/microlib/printf/printf.c         0x00000000   Number         0  printf4.o ABSOLUTE
    ../clib/microlib/printf/printf.c         0x00000000   Number         0  printf3.o ABSOLUTE
    ../clib/microlib/printf/printf.c         0x00000000   Number         0  printf2.o ABSOLUTE
    ../clib/microlib/printf/printf.c         0x00000000   Number         0  printf0.o ABSOLUTE
    ../clib/microlib/printf/printf.c         0x00000000   Number         0  printfa.o ABSOLUTE
    ../clib/microlib/printf/printf.c         0x00000000   Number         0  printf1.o ABSOLUTE
    ../clib/microlib/printf/printf.c         0x00000000   Number         0  printf8.o ABSOLUTE
    ../clib/microlib/printf/printf.c         0x00000000   Number         0  printfb.o ABSOLUTE
    ../clib/microlib/printf/printf.c         0x00000000   Number         0  printf7.o ABSOLUTE
    ../clib/microlib/printf/printf.c         0x00000000   Number         0  printf6.o ABSOLUTE
    ../clib/microlib/printf/stubs.s          0x00000000   Number         0  stubs.o ABSOLUTE
    ../clib/microlib/stdio/streams.c         0x00000000   Number         0  stdout.o ABSOLUTE
    ../clib/microlib/stubs.s                 0x00000000   Number         0  iusefp.o ABSOLUTE
    ../fplib/microlib/d2f.c                  0x00000000   Number         0  d2f.o ABSOLUTE
    ../fplib/microlib/f2d.c                  0x00000000   Number         0  f2d.o ABSOLUTE
    ../fplib/microlib/fpadd.c                0x00000000   Number         0  dadd.o ABSOLUTE
    ../fplib/microlib/fpadd.c                0x00000000   Number         0  fadd.o ABSOLUTE
    ../fplib/microlib/fpdiv.c                0x00000000   Number         0  ddiv.o ABSOLUTE
    ../fplib/microlib/fpepilogue.c           0x00000000   Number         0  fepilogue.o ABSOLUTE
    ../fplib/microlib/fpepilogue.c           0x00000000   Number         0  depilogue.o ABSOLUTE
    ../fplib/microlib/fpfix.c                0x00000000   Number         0  ffixi.o ABSOLUTE
    ../fplib/microlib/fpfix.c                0x00000000   Number         0  dfixi.o ABSOLUTE
    ../fplib/microlib/fpfix.c                0x00000000   Number         0  dfixul.o ABSOLUTE
    ../fplib/microlib/fpflt.c                0x00000000   Number         0  dflti.o ABSOLUTE
    ../fplib/microlib/fpflt.c                0x00000000   Number         0  dfltui.o ABSOLUTE
    ../fplib/microlib/fpflt.c                0x00000000   Number         0  fflti.o ABSOLUTE
    ../fplib/microlib/fpmul.c                0x00000000   Number         0  dmul.o ABSOLUTE
    ../fplib/microlib/fpmul.c                0x00000000   Number         0  fmul.o ABSOLUTE
    ../fplib/microlib/fpscalb.c              0x00000000   Number         0  dscalb.o ABSOLUTE
    ../mathlib/atan.c                        0x00000000   Number         0  atan.o ABSOLUTE
    ../mathlib/atan.c                        0x00000000   Number         0  atan_x.o ABSOLUTE
    ../mathlib/atan2.c                       0x00000000   Number         0  atan2.o ABSOLUTE
    ../mathlib/atan2.c                       0x00000000   Number         0  atan2_x.o ABSOLUTE
    ../mathlib/cos.c                         0x00000000   Number         0  cos_x.o ABSOLUTE
    ../mathlib/cos.c                         0x00000000   Number         0  cos.o ABSOLUTE
    ../mathlib/cos_i.c                       0x00000000   Number         0  cos_i.o ABSOLUTE
    ../mathlib/dunder.c                      0x00000000   Number         0  dunder.o ABSOLUTE
    ../mathlib/fpclassify.c                  0x00000000   Number         0  fpclassify.o ABSOLUTE
    ../mathlib/poly.c                        0x00000000   Number         0  poly.o ABSOLUTE
    ../mathlib/qnan.c                        0x00000000   Number         0  qnan.o ABSOLUTE
    ../mathlib/rred.c                        0x00000000   Number         0  rred.o ABSOLUTE
    ../mathlib/sin.c                         0x00000000   Number         0  sin_x.o ABSOLUTE
    ../mathlib/sin.c                         0x00000000   Number         0  sin.o ABSOLUTE
    ../mathlib/sin_i.c                       0x00000000   Number         0  sin_i_x.o ABSOLUTE
    ../mathlib/sin_i.c                       0x00000000   Number         0  sin_i.o ABSOLUTE
    ..\Libraries\CMSIS\core_cm3.c            0x00000000   Number         0  core_cm3.o ABSOLUTE
    ..\Libraries\CMSIS\startup\startup_stm32f10x_hd.s 0x00000000   Number         0  startup_stm32f10x_hd.o ABSOLUTE
    ..\Libraries\CMSIS\system_stm32f10x.c    0x00000000   Number         0  system_stm32f10x.o ABSOLUTE
    ..\Libraries\FWlib\src\misc.c            0x00000000   Number         0  misc.o ABSOLUTE
    ..\Libraries\FWlib\src\stm32f10x_adc.c   0x00000000   Number         0  stm32f10x_adc.o ABSOLUTE
    ..\Libraries\FWlib\src\stm32f10x_bkp.c   0x00000000   Number         0  stm32f10x_bkp.o ABSOLUTE
    ..\Libraries\FWlib\src\stm32f10x_can.c   0x00000000   Number         0  stm32f10x_can.o ABSOLUTE
    ..\Libraries\FWlib\src\stm32f10x_cec.c   0x00000000   Number         0  stm32f10x_cec.o ABSOLUTE
    ..\Libraries\FWlib\src\stm32f10x_crc.c   0x00000000   Number         0  stm32f10x_crc.o ABSOLUTE
    ..\Libraries\FWlib\src\stm32f10x_dac.c   0x00000000   Number         0  stm32f10x_dac.o ABSOLUTE
    ..\Libraries\FWlib\src\stm32f10x_dbgmcu.c 0x00000000   Number         0  stm32f10x_dbgmcu.o ABSOLUTE
    ..\Libraries\FWlib\src\stm32f10x_dma.c   0x00000000   Number         0  stm32f10x_dma.o ABSOLUTE
    ..\Libraries\FWlib\src\stm32f10x_exti.c  0x00000000   Number         0  stm32f10x_exti.o ABSOLUTE
    ..\Libraries\FWlib\src\stm32f10x_flash.c 0x00000000   Number         0  stm32f10x_flash.o ABSOLUTE
    ..\Libraries\FWlib\src\stm32f10x_fsmc.c  0x00000000   Number         0  stm32f10x_fsmc.o ABSOLUTE
    ..\Libraries\FWlib\src\stm32f10x_gpio.c  0x00000000   Number         0  stm32f10x_gpio.o ABSOLUTE
    ..\Libraries\FWlib\src\stm32f10x_i2c.c   0x00000000   Number         0  stm32f10x_i2c.o ABSOLUTE
    ..\Libraries\FWlib\src\stm32f10x_iwdg.c  0x00000000   Number         0  stm32f10x_iwdg.o ABSOLUTE
    ..\Libraries\FWlib\src\stm32f10x_pwr.c   0x00000000   Number         0  stm32f10x_pwr.o ABSOLUTE
    ..\Libraries\FWlib\src\stm32f10x_rcc.c   0x00000000   Number         0  stm32f10x_rcc.o ABSOLUTE
    ..\Libraries\FWlib\src\stm32f10x_rtc.c   0x00000000   Number         0  stm32f10x_rtc.o ABSOLUTE
    ..\Libraries\FWlib\src\stm32f10x_sdio.c  0x00000000   Number         0  stm32f10x_sdio.o ABSOLUTE
    ..\Libraries\FWlib\src\stm32f10x_spi.c   0x00000000   Number         0  stm32f10x_spi.o ABSOLUTE
    ..\Libraries\FWlib\src\stm32f10x_tim.c   0x00000000   Number         0  stm32f10x_tim.o ABSOLUTE
    ..\Libraries\FWlib\src\stm32f10x_usart.c 0x00000000   Number         0  stm32f10x_usart.o ABSOLUTE
    ..\Libraries\FWlib\src\stm32f10x_wwdg.c  0x00000000   Number         0  stm32f10x_wwdg.o ABSOLUTE
    ..\User\iic\hmc5883l.c                   0x00000000   Number         0  hmc5883l.o ABSOLUTE
    ..\User\iic\i2c1.c                       0x00000000   Number         0  i2c1.o ABSOLUTE
    ..\User\iic\mpu6050.c                    0x00000000   Number         0  mpu6050.o ABSOLUTE
    ..\User\led\led.c                        0x00000000   Number         0  led.o ABSOLUTE
    ..\User\main.c                           0x00000000   Number         0  main.o ABSOLUTE
    ..\User\stm32f10x_it.c                   0x00000000   Number         0  stm32f10x_it.o ABSOLUTE
    ..\User\systick\systick.c                0x00000000   Number         0  systick.o ABSOLUTE
    ..\User\uart\uart1.c                     0x00000000   Number         0  uart1.o ABSOLUTE
    ..\\Libraries\\CMSIS\\core_cm3.c         0x00000000   Number         0  core_cm3.o ABSOLUTE
    cdrcmple.s                               0x00000000   Number         0  cdrcmple.o ABSOLUTE
    dc.s                                     0x00000000   Number         0  dc.o ABSOLUTE
    handlers.s                               0x00000000   Number         0  handlers.o ABSOLUTE
    init.s                                   0x00000000   Number         0  init.o ABSOLUTE
    RESET                                    0x08000000   Section      304  startup_stm32f10x_hd.o(RESET)
    .ARM.Collect$$$$00000000                 0x08000130   Section        0  entry.o(.ARM.Collect$$$$00000000)
    .ARM.Collect$$$$00000001                 0x08000130   Section        4  entry2.o(.ARM.Collect$$$$00000001)
    .ARM.Collect$$$$00000004                 0x08000134   Section        4  entry5.o(.ARM.Collect$$$$00000004)
    .ARM.Collect$$$$00000008                 0x08000138   Section        0  entry7b.o(.ARM.Collect$$$$00000008)
    .ARM.Collect$$$$0000000A                 0x08000138   Section        0  entry8b.o(.ARM.Collect$$$$0000000A)
    .ARM.Collect$$$$0000000B                 0x08000138   Section        8  entry9a.o(.ARM.Collect$$$$0000000B)
    .ARM.Collect$$$$0000000D                 0x08000140   Section        0  entry10a.o(.ARM.Collect$$$$0000000D)
    .ARM.Collect$$$$0000000F                 0x08000140   Section        0  entry11a.o(.ARM.Collect$$$$0000000F)
    .ARM.Collect$$$$00002712                 0x08000140   Section        4  entry2.o(.ARM.Collect$$$$00002712)
    __lit__00000000                          0x08000140   Data           4  entry2.o(.ARM.Collect$$$$00002712)
    .text                                    0x08000144   Section       36  startup_stm32f10x_hd.o(.text)
    .text                                    0x08000168   Section        0  fadd.o(.text)
    .text                                    0x08000218   Section        0  fmul.o(.text)
    .text                                    0x0800027c   Section        0  dadd.o(.text)
    .text                                    0x080003ca   Section        0  dmul.o(.text)
    .text                                    0x080004ae   Section        0  ddiv.o(.text)
    .text                                    0x0800058c   Section        0  fflti.o(.text)
    .text                                    0x0800059e   Section        0  dflti.o(.text)
    .text                                    0x080005c0   Section        0  ffixi.o(.text)
    .text                                    0x080005f2   Section        0  f2d.o(.text)
    .text                                    0x08000618   Section        0  d2f.o(.text)
    .text                                    0x08000650   Section        0  uidiv.o(.text)
    .text                                    0x0800067c   Section        0  uldiv.o(.text)
    .text                                    0x080006de   Section        0  llshl.o(.text)
    .text                                    0x080006fc   Section        0  llsshr.o(.text)
    .text                                    0x08000720   Section        0  fepilogue.o(.text)
    .text                                    0x08000720   Section        0  iusefp.o(.text)
    .text                                    0x0800078e   Section        0  depilogue.o(.text)
    .text                                    0x08000848   Section        0  dfixul.o(.text)
    .text                                    0x08000878   Section       48  cdrcmple.o(.text)
    .text                                    0x080008a8   Section       36  init.o(.text)
    .text                                    0x080008cc   Section        0  llushr.o(.text)
    .text                                    0x080008ec   Section        0  dscalb.o(.text)
    .text                                    0x0800091a   Section        0  dfltui.o(.text)
    .text                                    0x08000934   Section        0  dfixi.o(.text)
    i.BusFault_Handler                       0x08000972   Section        0  stm32f10x_it.o(i.BusFault_Handler)
    i.CalledBySystickHandler                 0x08000978   Section        0  systick.o(i.CalledBySystickHandler)
    i.DebugMon_Handler                       0x08000990   Section        0  stm32f10x_it.o(i.DebugMon_Handler)
    i.Delay_us                               0x08000994   Section        0  systick.o(i.Delay_us)
    i.GPIO_Init                              0x080009b8   Section        0  stm32f10x_gpio.o(i.GPIO_Init)
    i.GPIO_ReadInputDataBit                  0x08000ace   Section        0  stm32f10x_gpio.o(i.GPIO_ReadInputDataBit)
    i.GPIO_ResetBits                         0x08000ae0   Section        0  stm32f10x_gpio.o(i.GPIO_ResetBits)
    i.GPIO_SetBits                           0x08000ae4   Section        0  stm32f10x_gpio.o(i.GPIO_SetBits)
    i.GPIO_WriteBit                          0x08000ae8   Section        0  stm32f10x_gpio.o(i.GPIO_WriteBit)
    i.HardFault_Handler                      0x08000af2   Section        0  stm32f10x_it.o(i.HardFault_Handler)
    i.Hmc5883l_CalYaw                        0x08000af8   Section        0  hmc5883l.o(i.Hmc5883l_CalYaw)
    i.Hmc5883l_Calibrate                     0x08000d38   Section        0  hmc5883l.o(i.Hmc5883l_Calibrate)
    i.Hmc5883l_GetData                       0x08000f20   Section        0  hmc5883l.o(i.Hmc5883l_GetData)
    i.Hmc5883l_GetDevID                      0x08000fe8   Section        0  hmc5883l.o(i.Hmc5883l_GetDevID)
    i.Hmc5883l_Init                          0x08001030   Section        0  hmc5883l.o(i.Hmc5883l_Init)
    i.I2C1_Init                              0x080010b4   Section        0  i2c1.o(i.I2C1_Init)
    i.I2C1_ReadData                          0x080010e8   Section        0  i2c1.o(i.I2C1_ReadData)
    i.I2C1_RecvByte                          0x0800117c   Section        0  i2c1.o(i.I2C1_RecvByte)
    i.I2C1_SendACK                           0x08001210   Section        0  i2c1.o(i.I2C1_SendACK)
    i.I2C1_SendByte                          0x08001254   Section        0  i2c1.o(i.I2C1_SendByte)
    i.I2C1_Start                             0x080012b0   Section        0  i2c1.o(i.I2C1_Start)
    i.I2C1_Stop                              0x080012ec   Section        0  i2c1.o(i.I2C1_Stop)
    i.I2C1_WaitACK                           0x08001328   Section        0  i2c1.o(i.I2C1_WaitACK)
    i.I2C1_WriteData                         0x080013ac   Section        0  i2c1.o(i.I2C1_WriteData)
    i.Led_Init                               0x0800141c   Section        0  led.o(i.Led_Init)
    i.MemManage_Handler                      0x08001450   Section        0  stm32f10x_it.o(i.MemManage_Handler)
    i.Mpu6050_CalPitchRoll                   0x08001454   Section        0  mpu6050.o(i.Mpu6050_CalPitchRoll)
    i.Mpu6050_GetAccelData                   0x080015bc   Section        0  mpu6050.o(i.Mpu6050_GetAccelData)
    i.Mpu6050_GetDevID                       0x0800167c   Section        0  mpu6050.o(i.Mpu6050_GetDevID)
    i.Mpu6050_GetGyroData                    0x08001698   Section        0  mpu6050.o(i.Mpu6050_GetGyroData)
    i.Mpu6050_Init                           0x0800175c   Section        0  mpu6050.o(i.Mpu6050_Init)
    i.Mpu6050_SetDLPF                        0x08001820   Section        0  mpu6050.o(i.Mpu6050_SetDLPF)
    i.Mpu6050_SetSampleRate                  0x0800187a   Section        0  mpu6050.o(i.Mpu6050_SetSampleRate)
    i.NMI_Handler                            0x080018d8   Section        0  stm32f10x_it.o(i.NMI_Handler)
    i.NVIC_Init                              0x080018dc   Section        0  misc.o(i.NVIC_Init)
    i.NVIC_PriorityGroupConfig               0x0800194c   Section        0  misc.o(i.NVIC_PriorityGroupConfig)
    i.NVIC_SetPriority                       0x08001960   Section        0  systick.o(i.NVIC_SetPriority)
    NVIC_SetPriority                         0x08001961   Thumb Code    32  systick.o(i.NVIC_SetPriority)
    i.PendSV_Handler                         0x08001988   Section        0  stm32f10x_it.o(i.PendSV_Handler)
    i.RCC_APB1PeriphResetCmd                 0x0800198c   Section        0  stm32f10x_rcc.o(i.RCC_APB1PeriphResetCmd)
    i.RCC_APB2PeriphClockCmd                 0x080019ac   Section        0  stm32f10x_rcc.o(i.RCC_APB2PeriphClockCmd)
    i.RCC_APB2PeriphResetCmd                 0x080019cc   Section        0  stm32f10x_rcc.o(i.RCC_APB2PeriphResetCmd)
    i.RCC_GetClocksFreq                      0x080019ec   Section        0  stm32f10x_rcc.o(i.RCC_GetClocksFreq)
    i.SVC_Handler                            0x08001ac0   Section        0  stm32f10x_it.o(i.SVC_Handler)
    i.SetSysClock                            0x08001ac2   Section        0  system_stm32f10x.o(i.SetSysClock)
    SetSysClock                              0x08001ac3   Thumb Code     8  system_stm32f10x.o(i.SetSysClock)
    i.SetSysClockTo72                        0x08001acc   Section        0  system_stm32f10x.o(i.SetSysClockTo72)
    SetSysClockTo72                          0x08001acd   Thumb Code   214  system_stm32f10x.o(i.SetSysClockTo72)
    i.SysTick_Handler                        0x08001bac   Section        0  stm32f10x_it.o(i.SysTick_Handler)
    i.SystemInit                             0x08001bb4   Section        0  system_stm32f10x.o(i.SystemInit)
    i.Systick_Init                           0x08001c14   Section        0  systick.o(i.Systick_Init)
    i.USART1_IRQHandler                      0x08001c94   Section        0  stm32f10x_it.o(i.USART1_IRQHandler)
    i.USART_ClearITPendingBit                0x08001cc8   Section        0  stm32f10x_usart.o(i.USART_ClearITPendingBit)
    i.USART_Cmd                              0x08001ce6   Section        0  stm32f10x_usart.o(i.USART_Cmd)
    i.USART_DeInit                           0x08001d00   Section        0  stm32f10x_usart.o(i.USART_DeInit)
    i.USART_GetFlagStatus                    0x08001d9c   Section        0  stm32f10x_usart.o(i.USART_GetFlagStatus)
    i.USART_GetITStatus                      0x08001db6   Section        0  stm32f10x_usart.o(i.USART_GetITStatus)
    i.USART_ITConfig                         0x08001e0a   Section        0  stm32f10x_usart.o(i.USART_ITConfig)
    i.USART_Init                             0x08001e54   Section        0  stm32f10x_usart.o(i.USART_Init)
    i.USART_SendData                         0x08001f2c   Section        0  stm32f10x_usart.o(i.USART_SendData)
    i.Uart1_Init                             0x08001f34   Section        0  uart1.o(i.Uart1_Init)
    i.UsageFault_Handler                     0x08001fe4   Section        0  stm32f10x_it.o(i.UsageFault_Handler)
    i.__0printf                              0x08001fe8   Section        0  printfa.o(i.__0printf)
    i.__ARM_fpclassify                       0x08002008   Section        0  fpclassify.o(i.__ARM_fpclassify)
    i.__ieee754_rem_pio2                     0x08002030   Section        0  rred.o(i.__ieee754_rem_pio2)
    i.__kernel_cos                           0x080023b8   Section        0  cos_i.o(i.__kernel_cos)
    i.__kernel_poly                          0x080024b4   Section        0  poly.o(i.__kernel_poly)
    i.__kernel_sin                           0x08002560   Section        0  sin_i.o(i.__kernel_sin)
    i.__mathlib_dbl_infnan                   0x0800264c   Section        0  dunder.o(i.__mathlib_dbl_infnan)
    i.__mathlib_dbl_infnan2                  0x08002652   Section        0  dunder.o(i.__mathlib_dbl_infnan2)
    i.__mathlib_dbl_invalid                  0x08002656   Section        0  dunder.o(i.__mathlib_dbl_invalid)
    i.__mathlib_dbl_underflow                0x08002664   Section        0  dunder.o(i.__mathlib_dbl_underflow)
    i.__scatterload_copy                     0x08002674   Section       14  handlers.o(i.__scatterload_copy)
    i.__scatterload_null                     0x08002682   Section        2  handlers.o(i.__scatterload_null)
    i.__scatterload_zeroinit                 0x08002684   Section       14  handlers.o(i.__scatterload_zeroinit)
    i.__set_errno                            0x08002694   Section        0  errno.o(i.__set_errno)
    i._fp_digits                             0x080026a0   Section        0  printfa.o(i._fp_digits)
    _fp_digits                               0x080026a1   Thumb Code   334  printfa.o(i._fp_digits)
    i._printf_core                           0x08002804   Section        0  printfa.o(i._printf_core)
    _printf_core                             0x08002805   Thumb Code  1744  printfa.o(i._printf_core)
    i._printf_post_padding                   0x08002ee0   Section        0  printfa.o(i._printf_post_padding)
    _printf_post_padding                     0x08002ee1   Thumb Code    36  printfa.o(i._printf_post_padding)
    i._printf_pre_padding                    0x08002f04   Section        0  printfa.o(i._printf_pre_padding)
    _printf_pre_padding                      0x08002f05   Thumb Code    46  printfa.o(i._printf_pre_padding)
    i.atan                                   0x08002f34   Section        0  atan.o(i.atan)
    i.atan2                                  0x08003154   Section        0  atan2.o(i.atan2)
    i.cos                                    0x080032d4   Section        0  cos.o(i.cos)
    i.fputc                                  0x08003370   Section        0  uart1.o(i.fputc)
    i.main                                   0x08003394   Section        0  main.o(i.main)
    i.sin                                    0x080034d0   Section        0  sin.o(i.sin)
    .constdata                               0x08003570   Section      152  atan.o(.constdata)
    atanhi                                   0x08003570   Data          32  atan.o(.constdata)
    atanlo                                   0x08003590   Data          32  atan.o(.constdata)
    aTodd                                    0x080035b0   Data          40  atan.o(.constdata)
    aTeven                                   0x080035d8   Data          48  atan.o(.constdata)
    .constdata                               0x08003608   Section       48  cos_i.o(.constdata)
    C                                        0x08003608   Data          48  cos_i.o(.constdata)
    .constdata                               0x08003638   Section        8  qnan.o(.constdata)
    .constdata                               0x08003640   Section      200  rred.o(.constdata)
    pio2s                                    0x08003640   Data          48  rred.o(.constdata)
    twooverpi                                0x08003670   Data         152  rred.o(.constdata)
    .constdata                               0x08003708   Section       40  sin_i.o(.constdata)
    S                                        0x08003708   Data          40  sin_i.o(.constdata)
    .data                                    0x20000000   Section       20  system_stm32f10x.o(.data)
    .data                                    0x20000014   Section       20  stm32f10x_rcc.o(.data)
    APBAHBPrescTable                         0x20000014   Data          16  stm32f10x_rcc.o(.data)
    ADCPrescTable                            0x20000024   Data           4  stm32f10x_rcc.o(.data)
    .data                                    0x20000028   Section        4  systick.o(.data)
    SystickDelayedTime                       0x20000028   Data           4  systick.o(.data)
    .data                                    0x2000002c   Section        8  i2c1.o(.data)
    SystickDelayedTime                       0x2000002c   Data           4  i2c1.o(.data)
    i2c1GPIOInitStruct                       0x20000030   Data           4  i2c1.o(.data)
    .data                                    0x20000034   Section       60  mpu6050.o(.data)
    SystickDelayedTime                       0x20000034   Data           4  mpu6050.o(.data)
    i2c1GPIOInitStruct                       0x20000038   Data           4  mpu6050.o(.data)
    AccelData                                0x2000003c   Data           6  mpu6050.o(.data)
    TempData                                 0x20000042   Data           2  mpu6050.o(.data)
    GyroData                                 0x20000044   Data           6  mpu6050.o(.data)
    .data                                    0x20000070   Section       52  hmc5883l.o(.data)
    SystickDelayedTime                       0x20000070   Data           4  hmc5883l.o(.data)
    i2c1GPIOInitStruct                       0x20000074   Data           4  hmc5883l.o(.data)
    XData                                    0x20000078   Data           2  hmc5883l.o(.data)
    YData                                    0x2000007a   Data           2  hmc5883l.o(.data)
    ZData                                    0x2000007c   Data           2  hmc5883l.o(.data)
    XData_Offset                             0x2000007e   Data           2  hmc5883l.o(.data)
    YData_Offset                             0x20000080   Data           2  hmc5883l.o(.data)
    ZData_Offset                             0x20000082   Data           2  hmc5883l.o(.data)
    XData_K                                  0x20000084   Data           4  hmc5883l.o(.data)
    YData_K                                  0x20000088   Data           4  hmc5883l.o(.data)
    ZData_K                                  0x2000008c   Data           4  hmc5883l.o(.data)
    .data                                    0x200000a4   Section        4  stdout.o(.data)
    .data                                    0x200000a8   Section        4  errno.o(.data)
    _errno                                   0x200000a8   Data           4  errno.o(.data)
    STACK                                    0x200000b0   Section     1024  startup_stm32f10x_hd.o(STACK)

    Global Symbols

    Symbol Name                              Value     Ov Type        Size  Object(Section)

    BuildAttributes$$THM_ISAv4$P$D$K$B$S$PE$A:L22UL41UL21$X:L11$S22US41US21$IEEE1$IW$USESV6$~STKCKD$USESV7$~SHL$OTIME$ROPI$IEEEX$EBA8$MICROLIB$REQ8$PRES8$EABIv2 0x00000000   Number         0  anon$$obj.o ABSOLUTE
    __ARM_use_no_argv                        0x00000000   Number         0  main.o ABSOLUTE
    _printf_a                                0x00000000   Number         0  stubs.o ABSOLUTE
    _printf_c                                0x00000000   Number         0  stubs.o ABSOLUTE
    _printf_charcount                        0x00000000   Number         0  stubs.o ABSOLUTE
    _printf_d                                0x00000000   Number         0  stubs.o ABSOLUTE
    _printf_e                                0x00000000   Number         0  stubs.o ABSOLUTE
    _printf_f                                0x00000000   Number         0  stubs.o ABSOLUTE
    _printf_flags                            0x00000000   Number         0  stubs.o ABSOLUTE
    _printf_fp_dec                           0x00000000   Number         0  stubs.o ABSOLUTE
    _printf_fp_hex                           0x00000000   Number         0  stubs.o ABSOLUTE
    _printf_g                                0x00000000   Number         0  stubs.o ABSOLUTE
    _printf_i                                0x00000000   Number         0  stubs.o ABSOLUTE
    _printf_int_dec                          0x00000000   Number         0  stubs.o ABSOLUTE
    _printf_l                                0x00000000   Number         0  stubs.o ABSOLUTE
    _printf_lc                               0x00000000   Number         0  stubs.o ABSOLUTE
    _printf_ll                               0x00000000   Number         0  stubs.o ABSOLUTE
    _printf_lld                              0x00000000   Number         0  stubs.o ABSOLUTE
    _printf_lli                              0x00000000   Number         0  stubs.o ABSOLUTE
    _printf_llo                              0x00000000   Number         0  stubs.o ABSOLUTE
    _printf_llu                              0x00000000   Number         0  stubs.o ABSOLUTE
    _printf_llx                              0x00000000   Number         0  stubs.o ABSOLUTE
    _printf_longlong_dec                     0x00000000   Number         0  stubs.o ABSOLUTE
    _printf_longlong_hex                     0x00000000   Number         0  stubs.o ABSOLUTE
    _printf_longlong_oct                     0x00000000   Number         0  stubs.o ABSOLUTE
    _printf_ls                               0x00000000   Number         0  stubs.o ABSOLUTE
    _printf_mbtowc                           0x00000000   Number         0  stubs.o ABSOLUTE
    _printf_n                                0x00000000   Number         0  stubs.o ABSOLUTE
    _printf_o                                0x00000000   Number         0  stubs.o ABSOLUTE
    _printf_p                                0x00000000   Number         0  stubs.o ABSOLUTE
    _printf_percent                          0x00000000   Number         0  stubs.o ABSOLUTE
    _printf_pre_padding                      0x00000000   Number         0  stubs.o ABSOLUTE
    _printf_return_value                     0x00000000   Number         0  stubs.o ABSOLUTE
    _printf_s                                0x00000000   Number         0  stubs.o ABSOLUTE
    _printf_sizespec                         0x00000000   Number         0  stubs.o ABSOLUTE
    _printf_str                              0x00000000   Number         0  stubs.o ABSOLUTE
    _printf_truncate_signed                  0x00000000   Number         0  stubs.o ABSOLUTE
    _printf_truncate_unsigned                0x00000000   Number         0  stubs.o ABSOLUTE
    _printf_u                                0x00000000   Number         0  stubs.o ABSOLUTE
    _printf_wc                               0x00000000   Number         0  stubs.o ABSOLUTE
    _printf_wctomb                           0x00000000   Number         0  stubs.o ABSOLUTE
    _printf_widthprec                        0x00000000   Number         0  stubs.o ABSOLUTE
    _printf_x                                0x00000000   Number         0  stubs.o ABSOLUTE
    __cpp_initialize__aeabi_                  - Undefined Weak Reference
    __cxa_finalize                            - Undefined Weak Reference
    __decompress                              - Undefined Weak Reference
    _clock_init                               - Undefined Weak Reference
    _microlib_exit                            - Undefined Weak Reference
    __Vectors_Size                           0x00000130   Number         0  startup_stm32f10x_hd.o ABSOLUTE
    __Vectors                                0x08000000   Data           4  startup_stm32f10x_hd.o(RESET)
    __Vectors_End                            0x08000130   Data           0  startup_stm32f10x_hd.o(RESET)
    __main                                   0x08000131   Thumb Code     0  entry.o(.ARM.Collect$$$$00000000)
    _main_stk                                0x08000131   Thumb Code     0  entry2.o(.ARM.Collect$$$$00000001)
    _main_scatterload                        0x08000135   Thumb Code     0  entry5.o(.ARM.Collect$$$$00000004)
    __main_after_scatterload                 0x08000139   Thumb Code     0  entry5.o(.ARM.Collect$$$$00000004)
    _main_clock                              0x08000139   Thumb Code     0  entry7b.o(.ARM.Collect$$$$00000008)
    _main_cpp_init                           0x08000139   Thumb Code     0  entry8b.o(.ARM.Collect$$$$0000000A)
    _main_init                               0x08000139   Thumb Code     0  entry9a.o(.ARM.Collect$$$$0000000B)
    __rt_final_cpp                           0x08000141   Thumb Code     0  entry10a.o(.ARM.Collect$$$$0000000D)
    __rt_final_exit                          0x08000141   Thumb Code     0  entry11a.o(.ARM.Collect$$$$0000000F)
    Reset_Handler                            0x08000145   Thumb Code     8  startup_stm32f10x_hd.o(.text)
    ADC1_2_IRQHandler                        0x0800015f   Thumb Code     0  startup_stm32f10x_hd.o(.text)
    ADC3_IRQHandler                          0x0800015f   Thumb Code     0  startup_stm32f10x_hd.o(.text)
    CAN1_RX1_IRQHandler                      0x0800015f   Thumb Code     0  startup_stm32f10x_hd.o(.text)
    CAN1_SCE_IRQHandler                      0x0800015f   Thumb Code     0  startup_stm32f10x_hd.o(.text)
    DMA1_Channel1_IRQHandler                 0x0800015f   Thumb Code     0  startup_stm32f10x_hd.o(.text)
    DMA1_Channel2_IRQHandler                 0x0800015f   Thumb Code     0  startup_stm32f10x_hd.o(.text)
    DMA1_Channel3_IRQHandler                 0x0800015f   Thumb Code     0  startup_stm32f10x_hd.o(.text)
    DMA1_Channel4_IRQHandler                 0x0800015f   Thumb Code     0  startup_stm32f10x_hd.o(.text)
    DMA1_Channel5_IRQHandler                 0x0800015f   Thumb Code     0  startup_stm32f10x_hd.o(.text)
    DMA1_Channel6_IRQHandler                 0x0800015f   Thumb Code     0  startup_stm32f10x_hd.o(.text)
    DMA1_Channel7_IRQHandler                 0x0800015f   Thumb Code     0  startup_stm32f10x_hd.o(.text)
    DMA2_Channel1_IRQHandler                 0x0800015f   Thumb Code     0  startup_stm32f10x_hd.o(.text)
    DMA2_Channel2_IRQHandler                 0x0800015f   Thumb Code     0  startup_stm32f10x_hd.o(.text)
    DMA2_Channel3_IRQHandler                 0x0800015f   Thumb Code     0  startup_stm32f10x_hd.o(.text)
    DMA2_Channel4_5_IRQHandler               0x0800015f   Thumb Code     0  startup_stm32f10x_hd.o(.text)
    EXTI0_IRQHandler                         0x0800015f   Thumb Code     0  startup_stm32f10x_hd.o(.text)
    EXTI15_10_IRQHandler                     0x0800015f   Thumb Code     0  startup_stm32f10x_hd.o(.text)
    EXTI1_IRQHandler                         0x0800015f   Thumb Code     0  startup_stm32f10x_hd.o(.text)
    EXTI2_IRQHandler                         0x0800015f   Thumb Code     0  startup_stm32f10x_hd.o(.text)
    EXTI3_IRQHandler                         0x0800015f   Thumb Code     0  startup_stm32f10x_hd.o(.text)
    EXTI4_IRQHandler                         0x0800015f   Thumb Code     0  startup_stm32f10x_hd.o(.text)
    EXTI9_5_IRQHandler                       0x0800015f   Thumb Code     0  startup_stm32f10x_hd.o(.text)
    FLASH_IRQHandler                         0x0800015f   Thumb Code     0  startup_stm32f10x_hd.o(.text)
    FSMC_IRQHandler                          0x0800015f   Thumb Code     0  startup_stm32f10x_hd.o(.text)
    I2C1_ER_IRQHandler                       0x0800015f   Thumb Code     0  startup_stm32f10x_hd.o(.text)
    I2C1_EV_IRQHandler                       0x0800015f   Thumb Code     0  startup_stm32f10x_hd.o(.text)
    I2C2_ER_IRQHandler                       0x0800015f   Thumb Code     0  startup_stm32f10x_hd.o(.text)
    I2C2_EV_IRQHandler                       0x0800015f   Thumb Code     0  startup_stm32f10x_hd.o(.text)
    PVD_IRQHandler                           0x0800015f   Thumb Code     0  startup_stm32f10x_hd.o(.text)
    RCC_IRQHandler                           0x0800015f   Thumb Code     0  startup_stm32f10x_hd.o(.text)
    RTCAlarm_IRQHandler                      0x0800015f   Thumb Code     0  startup_stm32f10x_hd.o(.text)
    RTC_IRQHandler                           0x0800015f   Thumb Code     0  startup_stm32f10x_hd.o(.text)
    SDIO_IRQHandler                          0x0800015f   Thumb Code     0  startup_stm32f10x_hd.o(.text)
    SPI1_IRQHandler                          0x0800015f   Thumb Code     0  startup_stm32f10x_hd.o(.text)
    SPI2_IRQHandler                          0x0800015f   Thumb Code     0  startup_stm32f10x_hd.o(.text)
    SPI3_IRQHandler                          0x0800015f   Thumb Code     0  startup_stm32f10x_hd.o(.text)
    TAMPER_IRQHandler                        0x0800015f   Thumb Code     0  startup_stm32f10x_hd.o(.text)
    TIM1_BRK_IRQHandler                      0x0800015f   Thumb Code     0  startup_stm32f10x_hd.o(.text)
    TIM1_CC_IRQHandler                       0x0800015f   Thumb Code     0  startup_stm32f10x_hd.o(.text)
    TIM1_TRG_COM_IRQHandler                  0x0800015f   Thumb Code     0  startup_stm32f10x_hd.o(.text)
    TIM1_UP_IRQHandler                       0x0800015f   Thumb Code     0  startup_stm32f10x_hd.o(.text)
    TIM2_IRQHandler                          0x0800015f   Thumb Code     0  startup_stm32f10x_hd.o(.text)
    TIM3_IRQHandler                          0x0800015f   Thumb Code     0  startup_stm32f10x_hd.o(.text)
    TIM4_IRQHandler                          0x0800015f   Thumb Code     0  startup_stm32f10x_hd.o(.text)
    TIM5_IRQHandler                          0x0800015f   Thumb Code     0  startup_stm32f10x_hd.o(.text)
    TIM6_IRQHandler                          0x0800015f   Thumb Code     0  startup_stm32f10x_hd.o(.text)
    TIM7_IRQHandler                          0x0800015f   Thumb Code     0  startup_stm32f10x_hd.o(.text)
    TIM8_BRK_IRQHandler                      0x0800015f   Thumb Code     0  startup_stm32f10x_hd.o(.text)
    TIM8_CC_IRQHandler                       0x0800015f   Thumb Code     0  startup_stm32f10x_hd.o(.text)
    TIM8_TRG_COM_IRQHandler                  0x0800015f   Thumb Code     0  startup_stm32f10x_hd.o(.text)
    TIM8_UP_IRQHandler                       0x0800015f   Thumb Code     0  startup_stm32f10x_hd.o(.text)
    UART4_IRQHandler                         0x0800015f   Thumb Code     0  startup_stm32f10x_hd.o(.text)
    UART5_IRQHandler                         0x0800015f   Thumb Code     0  startup_stm32f10x_hd.o(.text)
    USART2_IRQHandler                        0x0800015f   Thumb Code     0  startup_stm32f10x_hd.o(.text)
    USART3_IRQHandler                        0x0800015f   Thumb Code     0  startup_stm32f10x_hd.o(.text)
    USBWakeUp_IRQHandler                     0x0800015f   Thumb Code     0  startup_stm32f10x_hd.o(.text)
    USB_HP_CAN1_TX_IRQHandler                0x0800015f   Thumb Code     0  startup_stm32f10x_hd.o(.text)
    USB_LP_CAN1_RX0_IRQHandler               0x0800015f   Thumb Code     0  startup_stm32f10x_hd.o(.text)
    WWDG_IRQHandler                          0x0800015f   Thumb Code     0  startup_stm32f10x_hd.o(.text)
    __aeabi_fadd                             0x08000169   Thumb Code   164  fadd.o(.text)
    __aeabi_fsub                             0x0800020d   Thumb Code     6  fadd.o(.text)
    __aeabi_frsub                            0x08000213   Thumb Code     6  fadd.o(.text)
    __aeabi_fmul                             0x08000219   Thumb Code   100  fmul.o(.text)
    __aeabi_dadd                             0x0800027d   Thumb Code   322  dadd.o(.text)
    __aeabi_dsub                             0x080003bf   Thumb Code     6  dadd.o(.text)
    __aeabi_drsub                            0x080003c5   Thumb Code     6  dadd.o(.text)
    __aeabi_dmul                             0x080003cb   Thumb Code   228  dmul.o(.text)
    __aeabi_ddiv                             0x080004af   Thumb Code   222  ddiv.o(.text)
    __aeabi_i2f                              0x0800058d   Thumb Code    18  fflti.o(.text)
    __aeabi_i2d                              0x0800059f   Thumb Code    34  dflti.o(.text)
    __aeabi_f2iz                             0x080005c1   Thumb Code    50  ffixi.o(.text)
    __aeabi_f2d                              0x080005f3   Thumb Code    38  f2d.o(.text)
    __aeabi_d2f                              0x08000619   Thumb Code    56  d2f.o(.text)
    __aeabi_uidiv                            0x08000651   Thumb Code     0  uidiv.o(.text)
    __aeabi_uidivmod                         0x08000651   Thumb Code    44  uidiv.o(.text)
    __aeabi_uldivmod                         0x0800067d   Thumb Code    98  uldiv.o(.text)
    __aeabi_llsl                             0x080006df   Thumb Code    30  llshl.o(.text)
    _ll_shift_l                              0x080006df   Thumb Code     0  llshl.o(.text)
    __aeabi_lasr                             0x080006fd   Thumb Code    36  llsshr.o(.text)
    _ll_sshift_r                             0x080006fd   Thumb Code     0  llsshr.o(.text)
    __I$use$fp                               0x08000721   Thumb Code     0  iusefp.o(.text)
    _float_round                             0x08000721   Thumb Code    18  fepilogue.o(.text)
    _float_epilogue                          0x08000733   Thumb Code    92  fepilogue.o(.text)
    _double_round                            0x0800078f   Thumb Code    30  depilogue.o(.text)
    _double_epilogue                         0x080007ad   Thumb Code   156  depilogue.o(.text)
    __aeabi_d2ulz                            0x08000849   Thumb Code    48  dfixul.o(.text)
    __aeabi_cdrcmple                         0x08000879   Thumb Code    48  cdrcmple.o(.text)
    __scatterload                            0x080008a9   Thumb Code    28  init.o(.text)
    __scatterload_rt2                        0x080008a9   Thumb Code     0  init.o(.text)
    __aeabi_llsr                             0x080008cd   Thumb Code    32  llushr.o(.text)
    _ll_ushift_r                             0x080008cd   Thumb Code     0  llushr.o(.text)
    __ARM_scalbn                             0x080008ed   Thumb Code    46  dscalb.o(.text)
    scalbn                                   0x080008ed   Thumb Code     0  dscalb.o(.text)
    __aeabi_ui2d                             0x0800091b   Thumb Code    26  dfltui.o(.text)
    __aeabi_d2iz                             0x08000935   Thumb Code    62  dfixi.o(.text)
    BusFault_Handler                         0x08000973   Thumb Code     4  stm32f10x_it.o(i.BusFault_Handler)
    CalledBySystickHandler                   0x08000979   Thumb Code    18  systick.o(i.CalledBySystickHandler)
    DebugMon_Handler                         0x08000991   Thumb Code     2  stm32f10x_it.o(i.DebugMon_Handler)
    Delay_us                                 0x08000995   Thumb Code    32  systick.o(i.Delay_us)
    GPIO_Init                                0x080009b9   Thumb Code   278  stm32f10x_gpio.o(i.GPIO_Init)
    GPIO_ReadInputDataBit                    0x08000acf   Thumb Code    18  stm32f10x_gpio.o(i.GPIO_ReadInputDataBit)
    GPIO_ResetBits                           0x08000ae1   Thumb Code     4  stm32f10x_gpio.o(i.GPIO_ResetBits)
    GPIO_SetBits                             0x08000ae5   Thumb Code     4  stm32f10x_gpio.o(i.GPIO_SetBits)
    GPIO_WriteBit                            0x08000ae9   Thumb Code    10  stm32f10x_gpio.o(i.GPIO_WriteBit)
    HardFault_Handler                        0x08000af3   Thumb Code     4  stm32f10x_it.o(i.HardFault_Handler)
    Hmc5883l_CalYaw                          0x08000af9   Thumb Code   530  hmc5883l.o(i.Hmc5883l_CalYaw)
    Hmc5883l_Calibrate                       0x08000d39   Thumb Code   460  hmc5883l.o(i.Hmc5883l_Calibrate)
    Hmc5883l_GetData                         0x08000f21   Thumb Code   172  hmc5883l.o(i.Hmc5883l_GetData)
    Hmc5883l_GetDevID                        0x08000fe9   Thumb Code    60  hmc5883l.o(i.Hmc5883l_GetDevID)
    Hmc5883l_Init                            0x08001031   Thumb Code   118  hmc5883l.o(i.Hmc5883l_Init)
    I2C1_Init                                0x080010b5   Thumb Code    42  i2c1.o(i.I2C1_Init)
    I2C1_ReadData                            0x080010e9   Thumb Code   148  i2c1.o(i.I2C1_ReadData)
    I2C1_RecvByte                            0x0800117d   Thumb Code   138  i2c1.o(i.I2C1_RecvByte)
    I2C1_SendACK                             0x08001211   Thumb Code    64  i2c1.o(i.I2C1_SendACK)
    I2C1_SendByte                            0x08001255   Thumb Code    86  i2c1.o(i.I2C1_SendByte)
    I2C1_Start                               0x080012b1   Thumb Code    54  i2c1.o(i.I2C1_Start)
    I2C1_Stop                                0x080012ed   Thumb Code    54  i2c1.o(i.I2C1_Stop)
    I2C1_WaitACK                             0x08001329   Thumb Code   124  i2c1.o(i.I2C1_WaitACK)
    I2C1_WriteData                           0x080013ad   Thumb Code   110  i2c1.o(i.I2C1_WriteData)
    Led_Init                                 0x0800141d   Thumb Code    46  led.o(i.Led_Init)
    MemManage_Handler                        0x08001451   Thumb Code     4  stm32f10x_it.o(i.MemManage_Handler)
    Mpu6050_CalPitchRoll                     0x08001455   Thumb Code   318  mpu6050.o(i.Mpu6050_CalPitchRoll)
    Mpu6050_GetAccelData                     0x080015bd   Thumb Code   170  mpu6050.o(i.Mpu6050_GetAccelData)
    Mpu6050_GetDevID                         0x0800167d   Thumb Code    24  mpu6050.o(i.Mpu6050_GetDevID)
    Mpu6050_GetGyroData                      0x08001699   Thumb Code   170  mpu6050.o(i.Mpu6050_GetGyroData)
    Mpu6050_Init                             0x0800175d   Thumb Code   192  mpu6050.o(i.Mpu6050_Init)
    Mpu6050_SetDLPF                          0x08001821   Thumb Code    90  mpu6050.o(i.Mpu6050_SetDLPF)
    Mpu6050_SetSampleRate                    0x0800187b   Thumb Code    94  mpu6050.o(i.Mpu6050_SetSampleRate)
    NMI_Handler                              0x080018d9   Thumb Code     2  stm32f10x_it.o(i.NMI_Handler)
    NVIC_Init                                0x080018dd   Thumb Code   100  misc.o(i.NVIC_Init)
    NVIC_PriorityGroupConfig                 0x0800194d   Thumb Code    10  misc.o(i.NVIC_PriorityGroupConfig)
    PendSV_Handler                           0x08001989   Thumb Code     2  stm32f10x_it.o(i.PendSV_Handler)
    RCC_APB1PeriphResetCmd                   0x0800198d   Thumb Code    26  stm32f10x_rcc.o(i.RCC_APB1PeriphResetCmd)
    RCC_APB2PeriphClockCmd                   0x080019ad   Thumb Code    26  stm32f10x_rcc.o(i.RCC_APB2PeriphClockCmd)
    RCC_APB2PeriphResetCmd                   0x080019cd   Thumb Code    26  stm32f10x_rcc.o(i.RCC_APB2PeriphResetCmd)
    RCC_GetClocksFreq                        0x080019ed   Thumb Code   192  stm32f10x_rcc.o(i.RCC_GetClocksFreq)
    SVC_Handler                              0x08001ac1   Thumb Code     2  stm32f10x_it.o(i.SVC_Handler)
    SysTick_Handler                          0x08001bad   Thumb Code     8  stm32f10x_it.o(i.SysTick_Handler)
    SystemInit                               0x08001bb5   Thumb Code    78  system_stm32f10x.o(i.SystemInit)
    Systick_Init                             0x08001c15   Thumb Code    96  systick.o(i.Systick_Init)
    USART1_IRQHandler                        0x08001c95   Thumb Code    32  stm32f10x_it.o(i.USART1_IRQHandler)
    USART_ClearITPendingBit                  0x08001cc9   Thumb Code    30  stm32f10x_usart.o(i.USART_ClearITPendingBit)
    USART_Cmd                                0x08001ce7   Thumb Code    24  stm32f10x_usart.o(i.USART_Cmd)
    USART_DeInit                             0x08001d01   Thumb Code   134  stm32f10x_usart.o(i.USART_DeInit)
    USART_GetFlagStatus                      0x08001d9d   Thumb Code    26  stm32f10x_usart.o(i.USART_GetFlagStatus)
    USART_GetITStatus                        0x08001db7   Thumb Code    84  stm32f10x_usart.o(i.USART_GetITStatus)
    USART_ITConfig                           0x08001e0b   Thumb Code    74  stm32f10x_usart.o(i.USART_ITConfig)
    USART_Init                               0x08001e55   Thumb Code   210  stm32f10x_usart.o(i.USART_Init)
    USART_SendData                           0x08001f2d   Thumb Code     8  stm32f10x_usart.o(i.USART_SendData)
    Uart1_Init                               0x08001f35   Thumb Code   168  uart1.o(i.Uart1_Init)
    UsageFault_Handler                       0x08001fe5   Thumb Code     4  stm32f10x_it.o(i.UsageFault_Handler)
    __0printf                                0x08001fe9   Thumb Code    22  printfa.o(i.__0printf)
    __1printf                                0x08001fe9   Thumb Code     0  printfa.o(i.__0printf)
    __2printf                                0x08001fe9   Thumb Code     0  printfa.o(i.__0printf)
    __c89printf                              0x08001fe9   Thumb Code     0  printfa.o(i.__0printf)
    printf                                   0x08001fe9   Thumb Code     0  printfa.o(i.__0printf)
    __ARM_fpclassify                         0x08002009   Thumb Code    40  fpclassify.o(i.__ARM_fpclassify)
    __ieee754_rem_pio2                       0x08002031   Thumb Code   828  rred.o(i.__ieee754_rem_pio2)
    __kernel_cos                             0x080023b9   Thumb Code   230  cos_i.o(i.__kernel_cos)
    __kernel_poly                            0x080024b5   Thumb Code   170  poly.o(i.__kernel_poly)
    __kernel_sin                             0x08002561   Thumb Code   224  sin_i.o(i.__kernel_sin)
    __mathlib_dbl_infnan                     0x0800264d   Thumb Code     6  dunder.o(i.__mathlib_dbl_infnan)
    __mathlib_dbl_infnan2                    0x08002653   Thumb Code     4  dunder.o(i.__mathlib_dbl_infnan2)
    __mathlib_dbl_invalid                    0x08002657   Thumb Code    12  dunder.o(i.__mathlib_dbl_invalid)
    __mathlib_dbl_underflow                  0x08002665   Thumb Code    10  dunder.o(i.__mathlib_dbl_underflow)
    __scatterload_copy                       0x08002675   Thumb Code    14  handlers.o(i.__scatterload_copy)
    __scatterload_null                       0x08002683   Thumb Code     2  handlers.o(i.__scatterload_null)
    __scatterload_zeroinit                   0x08002685   Thumb Code    14  handlers.o(i.__scatterload_zeroinit)
    __set_errno                              0x08002695   Thumb Code     6  errno.o(i.__set_errno)
    atan                                     0x08002f35   Thumb Code   474  atan.o(i.atan)
    atan2                                    0x08003155   Thumb Code   346  atan2.o(i.atan2)
    cos                                      0x080032d5   Thumb Code   148  cos.o(i.cos)
    fputc                                    0x08003371   Thumb Code    32  uart1.o(i.fputc)
    main                                     0x08003395   Thumb Code   212  main.o(i.main)
    sin                                      0x080034d1   Thumb Code   150  sin.o(i.sin)
    __mathlib_zero                           0x08003638   Data           8  qnan.o(.constdata)
    Region$$Table$$Base                      0x08003730   Number         0  anon$$obj.o(Region$$Table)
    Region$$Table$$Limit                     0x08003750   Number         0  anon$$obj.o(Region$$Table)
    SystemCoreClock                          0x20000000   Data           4  system_stm32f10x.o(.data)
    AHBPrescTable                            0x20000004   Data          16  system_stm32f10x.o(.data)
    Mpu6050_ID                               0x2000004a   Data           1  mpu6050.o(.data)
    Mpu6050_Accel_X                          0x2000004c   Data           4  mpu6050.o(.data)
    Mpu6050_Accel_Y                          0x20000050   Data           4  mpu6050.o(.data)
    Mpu6050_Accel_Z                          0x20000054   Data           4  mpu6050.o(.data)
    Mpu6050_Temp                             0x20000058   Data           4  mpu6050.o(.data)
    Mpu6050_Gyro_X                           0x2000005c   Data           4  mpu6050.o(.data)
    Mpu6050_Gyro_Y                           0x20000060   Data           4  mpu6050.o(.data)
    Mpu6050_Gyro_Z                           0x20000064   Data           4  mpu6050.o(.data)
    Mpu6050_Pitch                            0x20000068   Data           4  mpu6050.o(.data)
    Mpu6050_Roll                             0x2000006c   Data           4  mpu6050.o(.data)
    Hmc5883l_ID_A                            0x20000090   Data           1  hmc5883l.o(.data)
    Hmc5883l_ID_B                            0x20000091   Data           1  hmc5883l.o(.data)
    Hmc5883l_ID_C                            0x20000092   Data           1  hmc5883l.o(.data)
    Hmc5883l_Gauss_X                         0x20000094   Data           4  hmc5883l.o(.data)
    Hmc5883l_Gauss_Y                         0x20000098   Data           4  hmc5883l.o(.data)
    Hmc5883l_Gauss_Z                         0x2000009c   Data           4  hmc5883l.o(.data)
    Hmc5883l_Yaw                             0x200000a0   Data           4  hmc5883l.o(.data)
    __stdout                                 0x200000a4   Data           4  stdout.o(.data)
    __initial_sp                             0x200004b0   Data           0  startup_stm32f10x_hd.o(STACK)



==============================================================================

Memory Map of the image

  Image Entry point : 0x08000145

  Load Region LR_1 (Base: 0x08000000, Size: 0x000037fc, Max: 0xffffffff, ABSOLUTE)

    Execution Region ER_RO (Base: 0x08000000, Size: 0x00003750, Max: 0xffffffff, ABSOLUTE)

    Base Addr    Size         Type   Attr      Idx    E Section Name        Object

    0x08000000   0x00000130   Data   RO            3    RESET               startup_stm32f10x_hd.o
    0x08000130   0x00000000   Code   RO         3483  * .ARM.Collect$$$$00000000  mc_w.l(entry.o)
    0x08000130   0x00000004   Code   RO         3806    .ARM.Collect$$$$00000001  mc_w.l(entry2.o)
    0x08000134   0x00000004   Code   RO         3809    .ARM.Collect$$$$00000004  mc_w.l(entry5.o)
    0x08000138   0x00000000   Code   RO         3811    .ARM.Collect$$$$00000008  mc_w.l(entry7b.o)
    0x08000138   0x00000000   Code   RO         3813    .ARM.Collect$$$$0000000A  mc_w.l(entry8b.o)
    0x08000138   0x00000008   Code   RO         3814    .ARM.Collect$$$$0000000B  mc_w.l(entry9a.o)
    0x08000140   0x00000000   Code   RO         3816    .ARM.Collect$$$$0000000D  mc_w.l(entry10a.o)
    0x08000140   0x00000000   Code   RO         3818    .ARM.Collect$$$$0000000F  mc_w.l(entry11a.o)
    0x08000140   0x00000004   Code   RO         3807    .ARM.Collect$$$$00002712  mc_w.l(entry2.o)
    0x08000144   0x00000024   Code   RO            4  * .text               startup_stm32f10x_hd.o
    0x08000168   0x000000b0   Code   RO         3747    .text               mf_w.l(fadd.o)
    0x08000218   0x00000064   Code   RO         3749    .text               mf_w.l(fmul.o)
    0x0800027c   0x0000014e   Code   RO         3751    .text               mf_w.l(dadd.o)
    0x080003ca   0x000000e4   Code   RO         3753    .text               mf_w.l(dmul.o)
    0x080004ae   0x000000de   Code   RO         3755    .text               mf_w.l(ddiv.o)
    0x0800058c   0x00000012   Code   RO         3757    .text               mf_w.l(fflti.o)
    0x0800059e   0x00000022   Code   RO         3759    .text               mf_w.l(dflti.o)
    0x080005c0   0x00000032   Code   RO         3761    .text               mf_w.l(ffixi.o)
    0x080005f2   0x00000026   Code   RO         3763    .text               mf_w.l(f2d.o)
    0x08000618   0x00000038   Code   RO         3765    .text               mf_w.l(d2f.o)
    0x08000650   0x0000002c   Code   RO         3821    .text               mc_w.l(uidiv.o)
    0x0800067c   0x00000062   Code   RO         3823    .text               mc_w.l(uldiv.o)
    0x080006de   0x0000001e   Code   RO         3825    .text               mc_w.l(llshl.o)
    0x080006fc   0x00000024   Code   RO         3827    .text               mc_w.l(llsshr.o)
    0x08000720   0x00000000   Code   RO         3836    .text               mc_w.l(iusefp.o)
    0x08000720   0x0000006e   Code   RO         3837    .text               mf_w.l(fepilogue.o)
    0x0800078e   0x000000ba   Code   RO         3839    .text               mf_w.l(depilogue.o)
    0x08000848   0x00000030   Code   RO         3841    .text               mf_w.l(dfixul.o)
    0x08000878   0x00000030   Code   RO         3843    .text               mf_w.l(cdrcmple.o)
    0x080008a8   0x00000024   Code   RO         3849    .text               mc_w.l(init.o)
    0x080008cc   0x00000020   Code   RO         3851    .text               mc_w.l(llushr.o)
    0x080008ec   0x0000002e   Code   RO         3853    .text               mf_w.l(dscalb.o)
    0x0800091a   0x0000001a   Code   RO         3855    .text               mf_w.l(dfltui.o)
    0x08000934   0x0000003e   Code   RO         3857    .text               mf_w.l(dfixi.o)
    0x08000972   0x00000004   Code   RO         3150    i.BusFault_Handler  stm32f10x_it.o
    0x08000976   0x00000002   PAD
    0x08000978   0x00000018   Code   RO         3257    i.CalledBySystickHandler  systick.o
    0x08000990   0x00000002   Code   RO         3151    i.DebugMon_Handler  stm32f10x_it.o
    0x08000992   0x00000002   PAD
    0x08000994   0x00000024   Code   RO         3258    i.Delay_us          systick.o
    0x080009b8   0x00000116   Code   RO         1271    i.GPIO_Init         stm32f10x_gpio.o
    0x08000ace   0x00000012   Code   RO         1275    i.GPIO_ReadInputDataBit  stm32f10x_gpio.o
    0x08000ae0   0x00000004   Code   RO         1278    i.GPIO_ResetBits    stm32f10x_gpio.o
    0x08000ae4   0x00000004   Code   RO         1279    i.GPIO_SetBits      stm32f10x_gpio.o
    0x08000ae8   0x0000000a   Code   RO         1282    i.GPIO_WriteBit     stm32f10x_gpio.o
    0x08000af2   0x00000004   Code   RO         3152    i.HardFault_Handler  stm32f10x_it.o
    0x08000af6   0x00000002   PAD
    0x08000af8   0x00000240   Code   RO         3417    i.Hmc5883l_CalYaw   hmc5883l.o
    0x08000d38   0x000001e8   Code   RO         3418    i.Hmc5883l_Calibrate  hmc5883l.o
    0x08000f20   0x000000c8   Code   RO         3419    i.Hmc5883l_GetData  hmc5883l.o
    0x08000fe8   0x00000048   Code   RO         3420    i.Hmc5883l_GetDevID  hmc5883l.o
    0x08001030   0x00000084   Code   RO         3421    i.Hmc5883l_Init     hmc5883l.o
    0x080010b4   0x00000034   Code   RO         3292    i.I2C1_Init         i2c1.o
    0x080010e8   0x00000094   Code   RO         3293    i.I2C1_ReadData     i2c1.o
    0x0800117c   0x00000094   Code   RO         3294    i.I2C1_RecvByte     i2c1.o
    0x08001210   0x00000044   Code   RO         3295    i.I2C1_SendACK      i2c1.o
    0x08001254   0x0000005c   Code   RO         3296    i.I2C1_SendByte     i2c1.o
    0x080012b0   0x0000003c   Code   RO         3297    i.I2C1_Start        i2c1.o
    0x080012ec   0x0000003c   Code   RO         3298    i.I2C1_Stop         i2c1.o
    0x08001328   0x00000084   Code   RO         3299    i.I2C1_WaitACK      i2c1.o
    0x080013ac   0x0000006e   Code   RO         3300    i.I2C1_WriteData    i2c1.o
    0x0800141a   0x00000002   PAD
    0x0800141c   0x00000034   Code   RO         3245    i.Led_Init          led.o
    0x08001450   0x00000004   Code   RO         3153    i.MemManage_Handler  stm32f10x_it.o
    0x08001454   0x00000168   Code   RO         3354    i.Mpu6050_CalPitchRoll  mpu6050.o
    0x080015bc   0x000000c0   Code   RO         3355    i.Mpu6050_GetAccelData  mpu6050.o
    0x0800167c   0x0000001c   Code   RO         3356    i.Mpu6050_GetDevID  mpu6050.o
    0x08001698   0x000000c4   Code   RO         3357    i.Mpu6050_GetGyroData  mpu6050.o
    0x0800175c   0x000000c4   Code   RO         3359    i.Mpu6050_Init      mpu6050.o
    0x08001820   0x0000005a   Code   RO         3360    i.Mpu6050_SetDLPF   mpu6050.o
    0x0800187a   0x0000005e   Code   RO         3361    i.Mpu6050_SetSampleRate  mpu6050.o
    0x080018d8   0x00000002   Code   RO         3154    i.NMI_Handler       stm32f10x_it.o
    0x080018da   0x00000002   PAD
    0x080018dc   0x00000070   Code   RO           83    i.NVIC_Init         misc.o
    0x0800194c   0x00000014   Code   RO           84    i.NVIC_PriorityGroupConfig  misc.o
    0x08001960   0x00000028   Code   RO         3259    i.NVIC_SetPriority  systick.o
    0x08001988   0x00000002   Code   RO         3155    i.PendSV_Handler    stm32f10x_it.o
    0x0800198a   0x00000002   PAD
    0x0800198c   0x00000020   Code   RO         1694    i.RCC_APB1PeriphResetCmd  stm32f10x_rcc.o
    0x080019ac   0x00000020   Code   RO         1695    i.RCC_APB2PeriphClockCmd  stm32f10x_rcc.o
    0x080019cc   0x00000020   Code   RO         1696    i.RCC_APB2PeriphResetCmd  stm32f10x_rcc.o
    0x080019ec   0x000000d4   Code   RO         1703    i.RCC_GetClocksFreq  stm32f10x_rcc.o
    0x08001ac0   0x00000002   Code   RO         3156    i.SVC_Handler       stm32f10x_it.o
    0x08001ac2   0x00000008   Code   RO           24    i.SetSysClock       system_stm32f10x.o
    0x08001aca   0x00000002   PAD
    0x08001acc   0x000000e0   Code   RO           25    i.SetSysClockTo72   system_stm32f10x.o
    0x08001bac   0x00000008   Code   RO         3157    i.SysTick_Handler   stm32f10x_it.o
    0x08001bb4   0x00000060   Code   RO           27    i.SystemInit        system_stm32f10x.o
    0x08001c14   0x00000080   Code   RO         3260    i.Systick_Init      systick.o
    0x08001c94   0x00000034   Code   RO         3158    i.USART1_IRQHandler  stm32f10x_it.o
    0x08001cc8   0x0000001e   Code   RO         2872    i.USART_ClearITPendingBit  stm32f10x_usart.o
    0x08001ce6   0x00000018   Code   RO         2875    i.USART_Cmd         stm32f10x_usart.o
    0x08001cfe   0x00000002   PAD
    0x08001d00   0x0000009c   Code   RO         2877    i.USART_DeInit      stm32f10x_usart.o
    0x08001d9c   0x0000001a   Code   RO         2878    i.USART_GetFlagStatus  stm32f10x_usart.o
    0x08001db6   0x00000054   Code   RO         2879    i.USART_GetITStatus  stm32f10x_usart.o
    0x08001e0a   0x0000004a   Code   RO         2881    i.USART_ITConfig    stm32f10x_usart.o
    0x08001e54   0x000000d8   Code   RO         2882    i.USART_Init        stm32f10x_usart.o
    0x08001f2c   0x00000008   Code   RO         2892    i.USART_SendData    stm32f10x_usart.o
    0x08001f34   0x000000b0   Code   RO         3221    i.Uart1_Init        uart1.o
    0x08001fe4   0x00000004   Code   RO         3159    i.UsageFault_Handler  stm32f10x_it.o
    0x08001fe8   0x00000020   Code   RO         3719    i.__0printf         mc_w.l(printfa.o)
    0x08002008   0x00000028   Code   RO         3845    i.__ARM_fpclassify  m_ws.l(fpclassify.o)
    0x08002030   0x00000388   Code   RO         3795    i.__ieee754_rem_pio2  m_ws.l(rred.o)
    0x080023b8   0x000000fc   Code   RO         3777    i.__kernel_cos      m_ws.l(cos_i.o)
    0x080024b4   0x000000aa   Code   RO         3847    i.__kernel_poly     m_ws.l(poly.o)
    0x0800255e   0x00000002   PAD
    0x08002560   0x000000ec   Code   RO         3800    i.__kernel_sin      m_ws.l(sin_i.o)
    0x0800264c   0x00000006   Code   RO         3781    i.__mathlib_dbl_infnan  m_ws.l(dunder.o)
    0x08002652   0x00000004   Code   RO         3782    i.__mathlib_dbl_infnan2  m_ws.l(dunder.o)
    0x08002656   0x0000000c   Code   RO         3783    i.__mathlib_dbl_invalid  m_ws.l(dunder.o)
    0x08002662   0x00000002   PAD
    0x08002664   0x00000010   Code   RO         3786    i.__mathlib_dbl_underflow  m_ws.l(dunder.o)
    0x08002674   0x0000000e   Code   RO         3861    i.__scatterload_copy  mc_w.l(handlers.o)
    0x08002682   0x00000002   Code   RO         3862    i.__scatterload_null  mc_w.l(handlers.o)
    0x08002684   0x0000000e   Code   RO         3863    i.__scatterload_zeroinit  mc_w.l(handlers.o)
    0x08002692   0x00000002   PAD
    0x08002694   0x0000000c   Code   RO         3831    i.__set_errno       mc_w.l(errno.o)
    0x080026a0   0x00000164   Code   RO         3726    i._fp_digits        mc_w.l(printfa.o)
    0x08002804   0x000006dc   Code   RO         3727    i._printf_core      mc_w.l(printfa.o)
    0x08002ee0   0x00000024   Code   RO         3728    i._printf_post_padding  mc_w.l(printfa.o)
    0x08002f04   0x0000002e   Code   RO         3729    i._printf_pre_padding  mc_w.l(printfa.o)
    0x08002f32   0x00000002   PAD
    0x08002f34   0x00000220   Code   RO         3768    i.atan              m_ws.l(atan.o)
    0x08003154   0x00000180   Code   RO         3460    i.atan2             m_ws.l(atan2.o)
    0x080032d4   0x0000009c   Code   RO         3468    i.cos               m_ws.l(cos.o)
    0x08003370   0x00000024   Code   RO         3223    i.fputc             uart1.o
    0x08003394   0x0000013c   Code   RO         3108    i.main              main.o
    0x080034d0   0x000000a0   Code   RO         3476    i.sin               m_ws.l(sin.o)
    0x08003570   0x00000098   Data   RO         3769    .constdata          m_ws.l(atan.o)
    0x08003608   0x00000030   Data   RO         3778    .constdata          m_ws.l(cos_i.o)
    0x08003638   0x00000008   Data   RO         3794    .constdata          m_ws.l(qnan.o)
    0x08003640   0x000000c8   Data   RO         3797    .constdata          m_ws.l(rred.o)
    0x08003708   0x00000028   Data   RO         3801    .constdata          m_ws.l(sin_i.o)
    0x08003730   0x00000020   Data   RO         3859    Region$$Table       anon$$obj.o


    Execution Region ER_RW (Base: 0x20000000, Size: 0x000000ac, Max: 0xffffffff, ABSOLUTE)

    Base Addr    Size         Type   Attr      Idx    E Section Name        Object

    0x20000000   0x00000014   Data   RW           28    .data               system_stm32f10x.o
    0x20000014   0x00000014   Data   RW         1723    .data               stm32f10x_rcc.o
    0x20000028   0x00000004   Data   RW         3261    .data               systick.o
    0x2000002c   0x00000008   Data   RW         3301    .data               i2c1.o
    0x20000034   0x0000003c   Data   RW         3362    .data               mpu6050.o
    0x20000070   0x00000034   Data   RW         3422    .data               hmc5883l.o
    0x200000a4   0x00000004   Data   RW         3820    .data               mc_w.l(stdout.o)
    0x200000a8   0x00000004   Data   RW         3832    .data               mc_w.l(errno.o)


    Execution Region ER_ZI (Base: 0x200000ac, Size: 0x00000404, Max: 0xffffffff, ABSOLUTE)

    Base Addr    Size         Type   Attr      Idx    E Section Name        Object

    0x200000ac   0x00000004   PAD
    0x200000b0   0x00000400   Zero   RW            1    STACK               startup_stm32f10x_hd.o


==============================================================================

Image component sizes


      Code (inc. data)   RO Data    RW Data    ZI Data      Debug   Object Name

         0          0          0          0          0       4536   core_cm3.o
      1468        128          0         52          0       4002   hmc5883l.o
       870         50          0          8          0       5876   i2c1.o
        52          6          0          0          0        487   led.o
       316        104          0          0          0       1891   main.o
       132         22          0          0          0       1575   misc.o
      1156         98          0         60          0       6642   mpu6050.o
        36          8        304          0       1024        872   startup_stm32f10x_hd.o
       314          0          0          0          0       4300   stm32f10x_gpio.o
        84         20          0          0          0       4506   stm32f10x_it.o
       308         38          0         20          0       5095   stm32f10x_rcc.o
       618         28          0          0          0       6926   stm32f10x_usart.o
       328         28          0         20          0     230453   system_stm32f10x.o
       228         50          0          4          0      17398   systick.o
       212         12          0          0          0       1241   uart1.o

    ----------------------------------------------------------------------
      6138        592        336        164       1024     295800   Object Totals
         0          0         32          0          0          0   (incl. Generated)
        16          0          0          0          0          0   (incl. Padding)

    ----------------------------------------------------------------------

      Code (inc. data)   RO Data    RW Data    ZI Data      Debug   Library Member Name

       544         70        152          0          0        124   atan.o
       384         38          0          0          0        144   atan2.o
       156          8          0          0          0        104   cos.o
       252         22         48          0          0        124   cos_i.o
        38          6          0          0          0        272   dunder.o
        40          0          0          0          0         68   fpclassify.o
       170          0          0          0          0         96   poly.o
         0          0          8          0          0          0   qnan.o
       904         76        200          0          0        140   rred.o
       160         10          0          0          0        108   sin.o
       236         12         40          0          0        128   sin_i.o
         0          0          0          0          0          0   entry.o
         0          0          0          0          0          0   entry10a.o
         0          0          0          0          0          0   entry11a.o
         8          4          0          0          0          0   entry2.o
         4          0          0          0          0          0   entry5.o
         0          0          0          0          0          0   entry7b.o
         0          0          0          0          0          0   entry8b.o
         8          4          0          0          0          0   entry9a.o
        12          6          0          4          0         68   errno.o
        30          0          0          0          0          0   handlers.o
        36          8          0          0          0         68   init.o
         0          0          0          0          0          0   iusefp.o
        30          0          0          0          0         68   llshl.o
        36          0          0          0          0         68   llsshr.o
        32          0          0          0          0         68   llushr.o
      2226         90          0          0          0        444   printfa.o
         0          0          0          4          0          0   stdout.o
        44          0          0          0          0         80   uidiv.o
        98          0          0          0          0         92   uldiv.o
        48          0          0          0          0         68   cdrcmple.o
        56          0          0          0          0         88   d2f.o
       334          0          0          0          0        148   dadd.o
       222          0          0          0          0        100   ddiv.o
       186          0          0          0          0        176   depilogue.o
        62          0          0          0          0         80   dfixi.o
        48          0          0          0          0         68   dfixul.o
        34          0          0          0          0         76   dflti.o
        26          0          0          0          0         76   dfltui.o
       228          0          0          0          0         96   dmul.o
        46          0          0          0          0         80   dscalb.o
        38          0          0          0          0         68   f2d.o
       176          0          0          0          0        140   fadd.o
       110          0          0          0          0        168   fepilogue.o
        50          0          0          0          0         68   ffixi.o
        18          0          0          0          0         68   fflti.o
       100          0          0          0          0         76   fmul.o

    ----------------------------------------------------------------------
      7238        354        448          8          4       3908   Library Totals
         8          0          0          0          4          0   (incl. Padding)

    ----------------------------------------------------------------------

      Code (inc. data)   RO Data    RW Data    ZI Data      Debug   Library Name

      2884        242        448          0          0       1308   m_ws.l
      2564        112          0          8          0        956   mc_w.l
      1782          0          0          0          0       1644   mf_w.l

    ----------------------------------------------------------------------
      7238        354        448          8          4       3908   Library Totals

    ----------------------------------------------------------------------

==============================================================================


      Code (inc. data)   RO Data    RW Data    ZI Data      Debug   

     13376        946        784        172       1028     294816   Grand Totals
     13376        946        784        172       1028     294816   ELF Image Totals
     13376        946        784        172          0          0   ROM Totals

==============================================================================

    Total RO  Size (Code + RO Data)                14160 (  13.83kB)
    Total RW  Size (RW Data + ZI Data)              1200 (   1.17kB)
    Total ROM Size (Code + RO Data + RW Data)      14332 (  14.00kB)

==============================================================================

